{
	"data": {
		"bytecode": {
			"linkReferences": {},
			"object": "60a060405234801561001057600080fd5b503373ffffffffffffffffffffffffffffffffffffffff1660808173ffffffffffffffffffffffffffffffffffffffff168152505060008060006101000a81548160ff02191690831515021790555060008060016101000a81548160ff02191690831515021790555060805161220b6100b06000396000818161086601528181610b5101528181610c7f01528181610ffa015261101e015261220b6000f3fe608060405234801561001057600080fd5b50600436106100f55760003560e01c8063462e91ec116100975780638e7ea5b2116100665780638e7ea5b21461023d578063a9ff6df11461025b578063f851a4401461028b578063fd47b368146102a9576100f5565b8063462e91ec146101ef5780634717f97c1461020b57806359f784681461022957806362d73eb814610233576100f5565b8063122902a6116100d3578063122902a61461016457806322f3e2d41461018357806330a56347146101a157806335b8e820146101bf576100f5565b80630121b93f146100fa57806306a49fce1461011657806309eef43e14610134575b600080fd5b610114600480360381019061010f91906112af565b6102c5565b005b61011e6105b6565b60405161012b919061148d565b60405180910390f35b61014e6004803603810190610149919061150d565b6106bb565b60405161015b9190611555565b60405180910390f35b61016c6106db565b60405161017a929190611570565b60405180910390f35b61018b610704565b6040516101989190611555565b60405180910390f35b6101a9610715565b6040516101b691906115a8565b60405180910390f35b6101d960048036038101906101d491906112af565b610722565b6040516101e69190611613565b60405180910390f35b6102096004803603810190610204919061176a565b610864565b005b610213610a4a565b604051610220919061148d565b60405180910390f35b610231610b4f565b005b61023b610c7d565b005b610245610e11565b60405161025291906117fd565b60405180910390f35b6102756004803603810190610270919061150d565b610fd8565b6040516102829190611555565b60405180910390f35b610293610ff8565b6040516102a0919061182e565b60405180910390f35b6102c360048036038101906102be919061150d565b61101c565b005b60008054906101000a900460ff16610312576040517f08c379a000000000000000000000000000000000000000000000000000000000815260040161030990611895565b60405180910390fd5b600060019054906101000a900460ff16610361576040517f08c379a000000000000000000000000000000000000000000000000000000000815260040161035890611901565b60405180910390fd5b600260003373ffffffffffffffffffffffffffffffffffffffff1673ffffffffffffffffffffffffffffffffffffffff16815260200190815260200160002060009054906101000a900460ff166103ed576040517f08c379a00000000000000000000000000000000000000000000000000000000081526004016103e49061196d565b60405180910390fd5b600360003373ffffffffffffffffffffffffffffffffffffffff1673ffffffffffffffffffffffffffffffffffffffff16815260200190815260200160002060009054906101000a900460ff161561047a576040517f08c379a0000000000000000000000000000000000000000000000000000000008152600401610471906119d9565b60405180910390fd5b6001811015801561049057506001805490508111155b6104cf576040517f08c379a00000000000000000000000000000000000000000000000000000000081526004016104c690611a45565b60405180910390fd5b6001600360003373ffffffffffffffffffffffffffffffffffffffff1673ffffffffffffffffffffffffffffffffffffffff16815260200190815260200160002060006101000a81548160ff0219169083151502179055506001806001836105379190611a94565b8154811061054857610547611ac8565b5b906000526020600020906003020160020160008282546105689190611af7565b92505081905550803373ffffffffffffffffffffffffffffffffffffffff167fa36cc2bebb74db33e9f88110a07ef56e1b31b24b4c4f51b54b1664266e29f45b60405160405180910390a350565b60606001805480602002602001604051908101604052809291908181526020016000905b828210156106b257838290600052602060002090600302016040518060600160405290816000820154815260200160018201805461061790611b5a565b80601f016020809104026020016040519081016040528092919081815260200182805461064390611b5a565b80156106905780601f1061066557610100808354040283529160200191610690565b820191906000526020600020905b81548152906001019060200180831161067357829003601f168201915b50505050508152602001600282015481525050815260200190600101906105da565b50505050905090565b60036020528060005260406000206000915054906101000a900460ff1681565b60008060008054906101000a900460ff16600060019054906101000a900460ff16915091509091565b60008054906101000a900460ff1681565b6000600180549050905090565b61072a611244565b6001821015801561074057506001805490508211155b61077f576040517f08c379a000000000000000000000000000000000000000000000000000000000815260040161077690611bd7565b60405180910390fd5b6001808361078d9190611a94565b8154811061079e5761079d611ac8565b5b9060005260206000209060030201604051806060016040529081600082015481526020016001820180546107d190611b5a565b80601f01602080910402602001604051908101604052809291908181526020018280546107fd90611b5a565b801561084a5780601f1061081f5761010080835404028352916020019161084a565b820191906000526020600020905b81548152906001019060200180831161082d57829003601f168201915b505050505081526020016002820154815250509050919050565b7f000000000000000000000000000000000000000000000000000000000000000073ffffffffffffffffffffffffffffffffffffffff163373ffffffffffffffffffffffffffffffffffffffff16146108f2576040517f08c379a00000000000000000000000000000000000000000000000000000000081526004016108e990611c43565b60405180910390fd5b600060019054906101000a900460ff1615610942576040517f08c379a000000000000000000000000000000000000000000000000000000000815260040161093990611caf565b60405180910390fd5b6000815111610986576040517f08c379a000000000000000000000000000000000000000000000000000000000815260040161097d90611d1b565b60405180910390fd5b6000600180805490506109999190611af7565b90506001604051806060016040528083815260200184815260200160008152509080600181540180825580915050600190039060005260206000209060030201600090919091909150600082015181600001556020820151816001019081610a019190611ee7565b50604082015181600201555050807fe83b2a43e7e82d975c8a0a6d2f045153c869e111136a34d1889ab7b598e396a383604051610a3e91906117fd565b60405180910390a25050565b60606001805480602002602001604051908101604052809291908181526020016000905b82821015610b46578382906000526020600020906003020160405180606001604052908160008201548152602001600182018054610aab90611b5a565b80601f0160208091040260200160405190810160405280929190818152602001828054610ad790611b5a565b8015610b245780601f10610af957610100808354040283529160200191610b24565b820191906000526020600020905b815481529060010190602001808311610b0757829003601f168201915b5050505050815260200160028201548152505081526020019060010190610a6e565b50505050905090565b7f000000000000000000000000000000000000000000000000000000000000000073ffffffffffffffffffffffffffffffffffffffff163373ffffffffffffffffffffffffffffffffffffffff1614610bdd576040517f08c379a0000000000000000000000000000000000000000000000000000000008152600401610bd490611c43565b60405180910390fd5b60008054906101000a900460ff16610c2a576040517f08c379a0000000000000000000000000000000000000000000000000000000008152600401610c2190611895565b60405180910390fd5b60008060006101000a81548160ff0219169083151502179055507f562cd572b2ba3b666cd989fc4ca98419ec81e75f04528df9d9d76fdb7807ee7142604051610c7391906115a8565b60405180910390a1565b7f000000000000000000000000000000000000000000000000000000000000000073ffffffffffffffffffffffffffffffffffffffff163373ffffffffffffffffffffffffffffffffffffffff1614610d0b576040517f08c379a0000000000000000000000000000000000000000000000000000000008152600401610d0290611c43565b60405180910390fd5b600060019054906101000a900460ff1615610d5b576040517f08c379a0000000000000000000000000000000000000000000000000000000008152600401610d5290612005565b60405180910390fd5b600060018054905011610da3576040517f08c379a0000000000000000000000000000000000000000000000000000000008152600401610d9a90612071565b60405180910390fd5b60016000806101000a81548160ff0219169083151502179055506001600060016101000a81548160ff0219169083151502179055507f159eee87222a0489c529f2153c26ad65d718f2cc33ebaa8d399d1dd5b39facaa42604051610e0791906115a8565b60405180910390a1565b606060008054906101000a900460ff1615610e61576040517f08c379a0000000000000000000000000000000000000000000000000000000008152600401610e58906120dd565b60405180910390fd5b600060018054905011610ea9576040517f08c379a0000000000000000000000000000000000000000000000000000000008152600401610ea090612071565b60405180910390fd5b60008060005b600180549050811015610f22578260018281548110610ed157610ed0611ac8565b5b9060005260206000209060030201600201541115610f155760018181548110610efd57610efc611ac8565b5b90600052602060002090600302016002015492508091505b8080600101915050610eaf565b5060018181548110610f3757610f36611ac8565b5b90600052602060002090600302016001018054610f5390611b5a565b80601f0160208091040260200160405190810160405280929190818152602001828054610f7f90611b5a565b8015610fcc5780601f10610fa157610100808354040283529160200191610fcc565b820191906000526020600020905b815481529060010190602001808311610faf57829003601f168201915b50505050509250505090565b60026020528060005260406000206000915054906101000a900460ff1681565b7f000000000000000000000000000000000000000000000000000000000000000081565b7f000000000000000000000000000000000000000000000000000000000000000073ffffffffffffffffffffffffffffffffffffffff163373ffffffffffffffffffffffffffffffffffffffff16146110aa576040517f08c379a00000000000000000000000000000000000000000000000000000000081526004016110a190611c43565b60405180910390fd5b600073ffffffffffffffffffffffffffffffffffffffff168173ffffffffffffffffffffffffffffffffffffffff1603611119576040517f08c379a000000000000000000000000000000000000000000000000000000000815260040161111090612149565b60405180910390fd5b600260008273ffffffffffffffffffffffffffffffffffffffff1673ffffffffffffffffffffffffffffffffffffffff16815260200190815260200160002060009054906101000a900460ff16156111a6576040517f08c379a000000000000000000000000000000000000000000000000000000000815260040161119d906121b5565b60405180910390fd5b6001600260008373ffffffffffffffffffffffffffffffffffffffff1673ffffffffffffffffffffffffffffffffffffffff16815260200190815260200160002060006101000a81548160ff0219169083151502179055508073ffffffffffffffffffffffffffffffffffffffff167f0ca65a9f1f88bd7257ac852d1062853358f81cdc56f9634dcbeed6090f8dfb4360405160405180910390a250565b60405180606001604052806000815260200160608152602001600081525090565b6000604051905090565b600080fd5b600080fd5b6000819050919050565b61128c81611279565b811461129757600080fd5b50565b6000813590506112a981611283565b92915050565b6000602082840312156112c5576112c461126f565b5b60006112d38482850161129a565b91505092915050565b600081519050919050565b600082825260208201905092915050565b6000819050602082019050919050565b61131181611279565b82525050565b600081519050919050565b600082825260208201905092915050565b60005b83811015611351578082015181840152602081019050611336565b60008484015250505050565b6000601f19601f8301169050919050565b600061137982611317565b6113838185611322565b9350611393818560208601611333565b61139c8161135d565b840191505092915050565b60006060830160008301516113bf6000860182611308565b50602083015184820360208601526113d7828261136e565b91505060408301516113ec6040860182611308565b508091505092915050565b600061140383836113a7565b905092915050565b6000602082019050919050565b6000611423826112dc565b61142d81856112e7565b93508360208202850161143f856112f8565b8060005b8581101561147b578484038952815161145c85826113f7565b94506114678361140b565b925060208a01995050600181019050611443565b50829750879550505050505092915050565b600060208201905081810360008301526114a78184611418565b905092915050565b600073ffffffffffffffffffffffffffffffffffffffff82169050919050565b60006114da826114af565b9050919050565b6114ea816114cf565b81146114f557600080fd5b50565b600081359050611507816114e1565b92915050565b6000602082840312156115235761152261126f565b5b6000611531848285016114f8565b91505092915050565b60008115159050919050565b61154f8161153a565b82525050565b600060208201905061156a6000830184611546565b92915050565b60006040820190506115856000830185611546565b6115926020830184611546565b9392505050565b6115a281611279565b82525050565b60006020820190506115bd6000830184611599565b92915050565b60006060830160008301516115db6000860182611308565b50602083015184820360208601526115f3828261136e565b91505060408301516116086040860182611308565b508091505092915050565b6000602082019050818103600083015261162d81846115c3565b905092915050565b600080fd5b600080fd5b7f4e487b7100000000000000000000000000000000000000000000000000000000600052604160045260246000fd5b6116778261135d565b810181811067ffffffffffffffff821117156116965761169561163f565b5b80604052505050565b60006116a9611265565b90506116b5828261166e565b919050565b600067ffffffffffffffff8211156116d5576116d461163f565b5b6116de8261135d565b9050602081019050919050565b82818337600083830152505050565b600061170d611708846116ba565b61169f565b9050828152602081018484840111156117295761172861163a565b5b6117348482856116eb565b509392505050565b600082601f83011261175157611750611635565b5b81356117618482602086016116fa565b91505092915050565b6000602082840312156117805761177f61126f565b5b600082013567ffffffffffffffff81111561179e5761179d611274565b5b6117aa8482850161173c565b91505092915050565b600082825260208201905092915050565b60006117cf82611317565b6117d981856117b3565b93506117e9818560208601611333565b6117f28161135d565b840191505092915050565b6000602082019050818103600083015261181781846117c4565b905092915050565b611828816114cf565b82525050565b6000602082019050611843600083018461181f565b92915050565b7f456c656374696f6e206e6f742061637469766500000000000000000000000000600082015250565b600061187f6013836117b3565b915061188a82611849565b602082019050919050565b600060208201905081810360008301526118ae81611872565b9050919050565b7f456c656374696f6e206e6f742073746172746564000000000000000000000000600082015250565b60006118eb6014836117b3565b91506118f6826118b5565b602082019050919050565b6000602082019050818103600083015261191a816118de565b9050919050565b7f4e6f742072656769737465726564000000000000000000000000000000000000600082015250565b6000611957600e836117b3565b915061196282611921565b602082019050919050565b600060208201905081810360008301526119868161194a565b9050919050565b7f416c726561647920766f74656400000000000000000000000000000000000000600082015250565b60006119c3600d836117b3565b91506119ce8261198d565b602082019050919050565b600060208201905081810360008301526119f2816119b6565b9050919050565b7f496e76616c69642063616e646964617465000000000000000000000000000000600082015250565b6000611a2f6011836117b3565b9150611a3a826119f9565b602082019050919050565b60006020820190508181036000830152611a5e81611a22565b9050919050565b7f4e487b7100000000000000000000000000000000000000000000000000000000600052601160045260246000fd5b6000611a9f82611279565b9150611aaa83611279565b9250828203905081811115611ac257611ac1611a65565b5b92915050565b7f4e487b7100000000000000000000000000000000000000000000000000000000600052603260045260246000fd5b6000611b0282611279565b9150611b0d83611279565b9250828201905080821115611b2557611b24611a65565b5b92915050565b7f4e487b7100000000000000000000000000000000000000000000000000000000600052602260045260246000fd5b60006002820490506001821680611b7257607f821691505b602082108103611b8557611b84611b2b565b5b50919050565b7f496e76616c696420494400000000000000000000000000000000000000000000600082015250565b6000611bc1600a836117b3565b9150611bcc82611b8b565b602082019050919050565b60006020820190508181036000830152611bf081611bb4565b9050919050565b7f4f6e6c792061646d696e20616c6c6f7765640000000000000000000000000000600082015250565b6000611c2d6012836117b3565b9150611c3882611bf7565b602082019050919050565b60006020820190508181036000830152611c5c81611c20565b9050919050565b7f456c656374696f6e20616c726561647920737461727465640000000000000000600082015250565b6000611c996018836117b3565b9150611ca482611c63565b602082019050919050565b60006020820190508181036000830152611cc881611c8c565b9050919050565b7f456d707479206e616d6500000000000000000000000000000000000000000000600082015250565b6000611d05600a836117b3565b9150611d1082611ccf565b602082019050919050565b60006020820190508181036000830152611d3481611cf8565b9050919050565b60008190508160005260206000209050919050565b60006020601f8301049050919050565b600082821b905092915050565b600060088302611d9d7fffffffffffffffffffffffffffffffffffffffffffffffffffffffffffffffff82611d60565b611da78683611d60565b95508019841693508086168417925050509392505050565b6000819050919050565b6000611de4611ddf611dda84611279565b611dbf565b611279565b9050919050565b6000819050919050565b611dfe83611dc9565b611e12611e0a82611deb565b848454611d6d565b825550505050565b600090565b611e27611e1a565b611e32818484611df5565b505050565b5b81811015611e5657611e4b600082611e1f565b600181019050611e38565b5050565b601f821115611e9b57611e6c81611d3b565b611e7584611d50565b81016020851015611e84578190505b611e98611e9085611d50565b830182611e37565b50505b505050565b600082821c905092915050565b6000611ebe60001984600802611ea0565b1980831691505092915050565b6000611ed78383611ead565b9150826002028217905092915050565b611ef082611317565b67ffffffffffffffff811115611f0957611f0861163f565b5b611f138254611b5a565b611f1e828285611e5a565b600060209050601f831160018114611f515760008415611f3f578287015190505b611f498582611ecb565b865550611fb1565b601f198416611f5f86611d3b565b60005b82811015611f8757848901518255600182019150602085019450602081019050611f62565b86831015611fa45784890151611fa0601f891682611ead565b8355505b6001600288020188555050505b505050505050565b7f416c726561647920737461727465640000000000000000000000000000000000600082015250565b6000611fef600f836117b3565b9150611ffa82611fb9565b602082019050919050565b6000602082019050818103600083015261201e81611fe2565b9050919050565b7f4e6f2063616e6469646174657300000000000000000000000000000000000000600082015250565b600061205b600d836117b3565b915061206682612025565b602082019050919050565b6000602082019050818103600083015261208a8161204e565b9050919050565b7f456c656374696f6e207374696c6c206163746976650000000000000000000000600082015250565b60006120c76015836117b3565b91506120d282612091565b602082019050919050565b600060208201905081810360008301526120f6816120ba565b9050919050565b7f496e76616c696420616464726573730000000000000000000000000000000000600082015250565b6000612133600f836117b3565b915061213e826120fd565b602082019050919050565b6000602082019050818103600083015261216281612126565b9050919050565b7f416c726561647920726567697374657265640000000000000000000000000000600082015250565b600061219f6012836117b3565b91506121aa82612169565b602082019050919050565b600060208201905081810360008301526121ce81612192565b905091905056fea2646970667358221220d1fcf8c296c60b454861e421c690f9cff328889ba4ec32bdfe0fb4ffcbe712e064736f6c634300081e0033",
			"opcodes": "PUSH1 0xA0 PUSH1 0x40 MSTORE CALLVALUE DUP1 ISZERO PUSH2 0x10 JUMPI PUSH1 0x0 DUP1 REVERT JUMPDEST POP CALLER PUSH20 0xFFFFFFFFFFFFFFFFFFFFFFFFFFFFFFFFFFFFFFFF AND PUSH1 0x80 DUP2 PUSH20 0xFFFFFFFFFFFFFFFFFFFFFFFFFFFFFFFFFFFFFFFF AND DUP2 MSTORE POP POP PUSH1 0x0 DUP1 PUSH1 0x0 PUSH2 0x100 EXP DUP2 SLOAD DUP2 PUSH1 0xFF MUL NOT AND SWAP1 DUP4 ISZERO ISZERO MUL OR SWAP1 SSTORE POP PUSH1 0x0 DUP1 PUSH1 0x1 PUSH2 0x100 EXP DUP2 SLOAD DUP2 PUSH1 0xFF MUL NOT AND SWAP1 DUP4 ISZERO ISZERO MUL OR SWAP1 SSTORE POP PUSH1 0x80 MLOAD PUSH2 0x220B PUSH2 0xB0 PUSH1 0x0 CODECOPY PUSH1 0x0 DUP2 DUP2 PUSH2 0x866 ADD MSTORE DUP2 DUP2 PUSH2 0xB51 ADD MSTORE DUP2 DUP2 PUSH2 0xC7F ADD MSTORE DUP2 DUP2 PUSH2 0xFFA ADD MSTORE PUSH2 0x101E ADD MSTORE PUSH2 0x220B PUSH1 0x0 RETURN INVALID PUSH1 0x80 PUSH1 0x40 MSTORE CALLVALUE DUP1 ISZERO PUSH2 0x10 JUMPI PUSH1 0x0 DUP1 REVERT JUMPDEST POP PUSH1 0x4 CALLDATASIZE LT PUSH2 0xF5 JUMPI PUSH1 0x0 CALLDATALOAD PUSH1 0xE0 SHR DUP1 PUSH4 0x462E91EC GT PUSH2 0x97 JUMPI DUP1 PUSH4 0x8E7EA5B2 GT PUSH2 0x66 JUMPI DUP1 PUSH4 0x8E7EA5B2 EQ PUSH2 0x23D JUMPI DUP1 PUSH4 0xA9FF6DF1 EQ PUSH2 0x25B JUMPI DUP1 PUSH4 0xF851A440 EQ PUSH2 0x28B JUMPI DUP1 PUSH4 0xFD47B368 EQ PUSH2 0x2A9 JUMPI PUSH2 0xF5 JUMP JUMPDEST DUP1 PUSH4 0x462E91EC EQ PUSH2 0x1EF JUMPI DUP1 PUSH4 0x4717F97C EQ PUSH2 0x20B JUMPI DUP1 PUSH4 0x59F78468 EQ PUSH2 0x229 JUMPI DUP1 PUSH4 0x62D73EB8 EQ PUSH2 0x233 JUMPI PUSH2 0xF5 JUMP JUMPDEST DUP1 PUSH4 0x122902A6 GT PUSH2 0xD3 JUMPI DUP1 PUSH4 0x122902A6 EQ PUSH2 0x164 JUMPI DUP1 PUSH4 0x22F3E2D4 EQ PUSH2 0x183 JUMPI DUP1 PUSH4 0x30A56347 EQ PUSH2 0x1A1 JUMPI DUP1 PUSH4 0x35B8E820 EQ PUSH2 0x1BF JUMPI PUSH2 0xF5 JUMP JUMPDEST DUP1 PUSH4 0x121B93F EQ PUSH2 0xFA JUMPI DUP1 PUSH4 0x6A49FCE EQ PUSH2 0x116 JUMPI DUP1 PUSH4 0x9EEF43E EQ PUSH2 0x134 JUMPI JUMPDEST PUSH1 0x0 DUP1 REVERT JUMPDEST PUSH2 0x114 PUSH1 0x4 DUP1 CALLDATASIZE SUB DUP2 ADD SWAP1 PUSH2 0x10F SWAP2 SWAP1 PUSH2 0x12AF JUMP JUMPDEST PUSH2 0x2C5 JUMP JUMPDEST STOP JUMPDEST PUSH2 0x11E PUSH2 0x5B6 JUMP JUMPDEST PUSH1 0x40 MLOAD PUSH2 0x12B SWAP2 SWAP1 PUSH2 0x148D JUMP JUMPDEST PUSH1 0x40 MLOAD DUP1 SWAP2 SUB SWAP1 RETURN JUMPDEST PUSH2 0x14E PUSH1 0x4 DUP1 CALLDATASIZE SUB DUP2 ADD SWAP1 PUSH2 0x149 SWAP2 SWAP1 PUSH2 0x150D JUMP JUMPDEST PUSH2 0x6BB JUMP JUMPDEST PUSH1 0x40 MLOAD PUSH2 0x15B SWAP2 SWAP1 PUSH2 0x1555 JUMP JUMPDEST PUSH1 0x40 MLOAD DUP1 SWAP2 SUB SWAP1 RETURN JUMPDEST PUSH2 0x16C PUSH2 0x6DB JUMP JUMPDEST PUSH1 0x40 MLOAD PUSH2 0x17A SWAP3 SWAP2 SWAP1 PUSH2 0x1570 JUMP JUMPDEST PUSH1 0x40 MLOAD DUP1 SWAP2 SUB SWAP1 RETURN JUMPDEST PUSH2 0x18B PUSH2 0x704 JUMP JUMPDEST PUSH1 0x40 MLOAD PUSH2 0x198 SWAP2 SWAP1 PUSH2 0x1555 JUMP JUMPDEST PUSH1 0x40 MLOAD DUP1 SWAP2 SUB SWAP1 RETURN JUMPDEST PUSH2 0x1A9 PUSH2 0x715 JUMP JUMPDEST PUSH1 0x40 MLOAD PUSH2 0x1B6 SWAP2 SWAP1 PUSH2 0x15A8 JUMP JUMPDEST PUSH1 0x40 MLOAD DUP1 SWAP2 SUB SWAP1 RETURN JUMPDEST PUSH2 0x1D9 PUSH1 0x4 DUP1 CALLDATASIZE SUB DUP2 ADD SWAP1 PUSH2 0x1D4 SWAP2 SWAP1 PUSH2 0x12AF JUMP JUMPDEST PUSH2 0x722 JUMP JUMPDEST PUSH1 0x40 MLOAD PUSH2 0x1E6 SWAP2 SWAP1 PUSH2 0x1613 JUMP JUMPDEST PUSH1 0x40 MLOAD DUP1 SWAP2 SUB SWAP1 RETURN JUMPDEST PUSH2 0x209 PUSH1 0x4 DUP1 CALLDATASIZE SUB DUP2 ADD SWAP1 PUSH2 0x204 SWAP2 SWAP1 PUSH2 0x176A JUMP JUMPDEST PUSH2 0x864 JUMP JUMPDEST STOP JUMPDEST PUSH2 0x213 PUSH2 0xA4A JUMP JUMPDEST PUSH1 0x40 MLOAD PUSH2 0x220 SWAP2 SWAP1 PUSH2 0x148D JUMP JUMPDEST PUSH1 0x40 MLOAD DUP1 SWAP2 SUB SWAP1 RETURN JUMPDEST PUSH2 0x231 PUSH2 0xB4F JUMP JUMPDEST STOP JUMPDEST PUSH2 0x23B PUSH2 0xC7D JUMP JUMPDEST STOP JUMPDEST PUSH2 0x245 PUSH2 0xE11 JUMP JUMPDEST PUSH1 0x40 MLOAD PUSH2 0x252 SWAP2 SWAP1 PUSH2 0x17FD JUMP JUMPDEST PUSH1 0x40 MLOAD DUP1 SWAP2 SUB SWAP1 RETURN JUMPDEST PUSH2 0x275 PUSH1 0x4 DUP1 CALLDATASIZE SUB DUP2 ADD SWAP1 PUSH2 0x270 SWAP2 SWAP1 PUSH2 0x150D JUMP JUMPDEST PUSH2 0xFD8 JUMP JUMPDEST PUSH1 0x40 MLOAD PUSH2 0x282 SWAP2 SWAP1 PUSH2 0x1555 JUMP JUMPDEST PUSH1 0x40 MLOAD DUP1 SWAP2 SUB SWAP1 RETURN JUMPDEST PUSH2 0x293 PUSH2 0xFF8 JUMP JUMPDEST PUSH1 0x40 MLOAD PUSH2 0x2A0 SWAP2 SWAP1 PUSH2 0x182E JUMP JUMPDEST PUSH1 0x40 MLOAD DUP1 SWAP2 SUB SWAP1 RETURN JUMPDEST PUSH2 0x2C3 PUSH1 0x4 DUP1 CALLDATASIZE SUB DUP2 ADD SWAP1 PUSH2 0x2BE SWAP2 SWAP1 PUSH2 0x150D JUMP JUMPDEST PUSH2 0x101C JUMP JUMPDEST STOP JUMPDEST PUSH1 0x0 DUP1 SLOAD SWAP1 PUSH2 0x100 EXP SWAP1 DIV PUSH1 0xFF AND PUSH2 0x312 JUMPI PUSH1 0x40 MLOAD PUSH32 0x8C379A000000000000000000000000000000000000000000000000000000000 DUP2 MSTORE PUSH1 0x4 ADD PUSH2 0x309 SWAP1 PUSH2 0x1895 JUMP JUMPDEST PUSH1 0x40 MLOAD DUP1 SWAP2 SUB SWAP1 REVERT JUMPDEST PUSH1 0x0 PUSH1 0x1 SWAP1 SLOAD SWAP1 PUSH2 0x100 EXP SWAP1 DIV PUSH1 0xFF AND PUSH2 0x361 JUMPI PUSH1 0x40 MLOAD PUSH32 0x8C379A000000000000000000000000000000000000000000000000000000000 DUP2 MSTORE PUSH1 0x4 ADD PUSH2 0x358 SWAP1 PUSH2 0x1901 JUMP JUMPDEST PUSH1 0x40 MLOAD DUP1 SWAP2 SUB SWAP1 REVERT JUMPDEST PUSH1 0x2 PUSH1 0x0 CALLER PUSH20 0xFFFFFFFFFFFFFFFFFFFFFFFFFFFFFFFFFFFFFFFF AND PUSH20 0xFFFFFFFFFFFFFFFFFFFFFFFFFFFFFFFFFFFFFFFF AND DUP2 MSTORE PUSH1 0x20 ADD SWAP1 DUP2 MSTORE PUSH1 0x20 ADD PUSH1 0x0 KECCAK256 PUSH1 0x0 SWAP1 SLOAD SWAP1 PUSH2 0x100 EXP SWAP1 DIV PUSH1 0xFF AND PUSH2 0x3ED JUMPI PUSH1 0x40 MLOAD PUSH32 0x8C379A000000000000000000000000000000000000000000000000000000000 DUP2 MSTORE PUSH1 0x4 ADD PUSH2 0x3E4 SWAP1 PUSH2 0x196D JUMP JUMPDEST PUSH1 0x40 MLOAD DUP1 SWAP2 SUB SWAP1 REVERT JUMPDEST PUSH1 0x3 PUSH1 0x0 CALLER PUSH20 0xFFFFFFFFFFFFFFFFFFFFFFFFFFFFFFFFFFFFFFFF AND PUSH20 0xFFFFFFFFFFFFFFFFFFFFFFFFFFFFFFFFFFFFFFFF AND DUP2 MSTORE PUSH1 0x20 ADD SWAP1 DUP2 MSTORE PUSH1 0x20 ADD PUSH1 0x0 KECCAK256 PUSH1 0x0 SWAP1 SLOAD SWAP1 PUSH2 0x100 EXP SWAP1 DIV PUSH1 0xFF AND ISZERO PUSH2 0x47A JUMPI PUSH1 0x40 MLOAD PUSH32 0x8C379A000000000000000000000000000000000000000000000000000000000 DUP2 MSTORE PUSH1 0x4 ADD PUSH2 0x471 SWAP1 PUSH2 0x19D9 JUMP JUMPDEST PUSH1 0x40 MLOAD DUP1 SWAP2 SUB SWAP1 REVERT JUMPDEST PUSH1 0x1 DUP2 LT ISZERO DUP1 ISZERO PUSH2 0x490 JUMPI POP PUSH1 0x1 DUP1 SLOAD SWAP1 POP DUP2 GT ISZERO JUMPDEST PUSH2 0x4CF JUMPI PUSH1 0x40 MLOAD PUSH32 0x8C379A000000000000000000000000000000000000000000000000000000000 DUP2 MSTORE PUSH1 0x4 ADD PUSH2 0x4C6 SWAP1 PUSH2 0x1A45 JUMP JUMPDEST PUSH1 0x40 MLOAD DUP1 SWAP2 SUB SWAP1 REVERT JUMPDEST PUSH1 0x1 PUSH1 0x3 PUSH1 0x0 CALLER PUSH20 0xFFFFFFFFFFFFFFFFFFFFFFFFFFFFFFFFFFFFFFFF AND PUSH20 0xFFFFFFFFFFFFFFFFFFFFFFFFFFFFFFFFFFFFFFFF AND DUP2 MSTORE PUSH1 0x20 ADD SWAP1 DUP2 MSTORE PUSH1 0x20 ADD PUSH1 0x0 KECCAK256 PUSH1 0x0 PUSH2 0x100 EXP DUP2 SLOAD DUP2 PUSH1 0xFF MUL NOT AND SWAP1 DUP4 ISZERO ISZERO MUL OR SWAP1 SSTORE POP PUSH1 0x1 DUP1 PUSH1 0x1 DUP4 PUSH2 0x537 SWAP2 SWAP1 PUSH2 0x1A94 JUMP JUMPDEST DUP2 SLOAD DUP2 LT PUSH2 0x548 JUMPI PUSH2 0x547 PUSH2 0x1AC8 JUMP JUMPDEST JUMPDEST SWAP1 PUSH1 0x0 MSTORE PUSH1 0x20 PUSH1 0x0 KECCAK256 SWAP1 PUSH1 0x3 MUL ADD PUSH1 0x2 ADD PUSH1 0x0 DUP3 DUP3 SLOAD PUSH2 0x568 SWAP2 SWAP1 PUSH2 0x1AF7 JUMP JUMPDEST SWAP3 POP POP DUP2 SWAP1 SSTORE POP DUP1 CALLER PUSH20 0xFFFFFFFFFFFFFFFFFFFFFFFFFFFFFFFFFFFFFFFF AND PUSH32 0xA36CC2BEBB74DB33E9F88110A07EF56E1B31B24B4C4F51B54B1664266E29F45B PUSH1 0x40 MLOAD PUSH1 0x40 MLOAD DUP1 SWAP2 SUB SWAP1 LOG3 POP JUMP JUMPDEST PUSH1 0x60 PUSH1 0x1 DUP1 SLOAD DUP1 PUSH1 0x20 MUL PUSH1 0x20 ADD PUSH1 0x40 MLOAD SWAP1 DUP2 ADD PUSH1 0x40 MSTORE DUP1 SWAP3 SWAP2 SWAP1 DUP2 DUP2 MSTORE PUSH1 0x20 ADD PUSH1 0x0 SWAP1 JUMPDEST DUP3 DUP3 LT ISZERO PUSH2 0x6B2 JUMPI DUP4 DUP3 SWAP1 PUSH1 0x0 MSTORE PUSH1 0x20 PUSH1 0x0 KECCAK256 SWAP1 PUSH1 0x3 MUL ADD PUSH1 0x40 MLOAD DUP1 PUSH1 0x60 ADD PUSH1 0x40 MSTORE SWAP1 DUP2 PUSH1 0x0 DUP3 ADD SLOAD DUP2 MSTORE PUSH1 0x20 ADD PUSH1 0x1 DUP3 ADD DUP1 SLOAD PUSH2 0x617 SWAP1 PUSH2 0x1B5A JUMP JUMPDEST DUP1 PUSH1 0x1F ADD PUSH1 0x20 DUP1 SWAP2 DIV MUL PUSH1 0x20 ADD PUSH1 0x40 MLOAD SWAP1 DUP2 ADD PUSH1 0x40 MSTORE DUP1 SWAP3 SWAP2 SWAP1 DUP2 DUP2 MSTORE PUSH1 0x20 ADD DUP3 DUP1 SLOAD PUSH2 0x643 SWAP1 PUSH2 0x1B5A JUMP JUMPDEST DUP1 ISZERO PUSH2 0x690 JUMPI DUP1 PUSH1 0x1F LT PUSH2 0x665 JUMPI PUSH2 0x100 DUP1 DUP4 SLOAD DIV MUL DUP4 MSTORE SWAP2 PUSH1 0x20 ADD SWAP2 PUSH2 0x690 JUMP JUMPDEST DUP3 ADD SWAP2 SWAP1 PUSH1 0x0 MSTORE PUSH1 0x20 PUSH1 0x0 KECCAK256 SWAP1 JUMPDEST DUP2 SLOAD DUP2 MSTORE SWAP1 PUSH1 0x1 ADD SWAP1 PUSH1 0x20 ADD DUP1 DUP4 GT PUSH2 0x673 JUMPI DUP3 SWAP1 SUB PUSH1 0x1F AND DUP3 ADD SWAP2 JUMPDEST POP POP POP POP POP DUP2 MSTORE PUSH1 0x20 ADD PUSH1 0x2 DUP3 ADD SLOAD DUP2 MSTORE POP POP DUP2 MSTORE PUSH1 0x20 ADD SWAP1 PUSH1 0x1 ADD SWAP1 PUSH2 0x5DA JUMP JUMPDEST POP POP POP POP SWAP1 POP SWAP1 JUMP JUMPDEST PUSH1 0x3 PUSH1 0x20 MSTORE DUP1 PUSH1 0x0 MSTORE PUSH1 0x40 PUSH1 0x0 KECCAK256 PUSH1 0x0 SWAP2 POP SLOAD SWAP1 PUSH2 0x100 EXP SWAP1 DIV PUSH1 0xFF AND DUP2 JUMP JUMPDEST PUSH1 0x0 DUP1 PUSH1 0x0 DUP1 SLOAD SWAP1 PUSH2 0x100 EXP SWAP1 DIV PUSH1 0xFF AND PUSH1 0x0 PUSH1 0x1 SWAP1 SLOAD SWAP1 PUSH2 0x100 EXP SWAP1 DIV PUSH1 0xFF AND SWAP2 POP SWAP2 POP SWAP1 SWAP2 JUMP JUMPDEST PUSH1 0x0 DUP1 SLOAD SWAP1 PUSH2 0x100 EXP SWAP1 DIV PUSH1 0xFF AND DUP2 JUMP JUMPDEST PUSH1 0x0 PUSH1 0x1 DUP1 SLOAD SWAP1 POP SWAP1 POP SWAP1 JUMP JUMPDEST PUSH2 0x72A PUSH2 0x1244 JUMP JUMPDEST PUSH1 0x1 DUP3 LT ISZERO DUP1 ISZERO PUSH2 0x740 JUMPI POP PUSH1 0x1 DUP1 SLOAD SWAP1 POP DUP3 GT ISZERO JUMPDEST PUSH2 0x77F JUMPI PUSH1 0x40 MLOAD PUSH32 0x8C379A000000000000000000000000000000000000000000000000000000000 DUP2 MSTORE PUSH1 0x4 ADD PUSH2 0x776 SWAP1 PUSH2 0x1BD7 JUMP JUMPDEST PUSH1 0x40 MLOAD DUP1 SWAP2 SUB SWAP1 REVERT JUMPDEST PUSH1 0x1 DUP1 DUP4 PUSH2 0x78D SWAP2 SWAP1 PUSH2 0x1A94 JUMP JUMPDEST DUP2 SLOAD DUP2 LT PUSH2 0x79E JUMPI PUSH2 0x79D PUSH2 0x1AC8 JUMP JUMPDEST JUMPDEST SWAP1 PUSH1 0x0 MSTORE PUSH1 0x20 PUSH1 0x0 KECCAK256 SWAP1 PUSH1 0x3 MUL ADD PUSH1 0x40 MLOAD DUP1 PUSH1 0x60 ADD PUSH1 0x40 MSTORE SWAP1 DUP2 PUSH1 0x0 DUP3 ADD SLOAD DUP2 MSTORE PUSH1 0x20 ADD PUSH1 0x1 DUP3 ADD DUP1 SLOAD PUSH2 0x7D1 SWAP1 PUSH2 0x1B5A JUMP JUMPDEST DUP1 PUSH1 0x1F ADD PUSH1 0x20 DUP1 SWAP2 DIV MUL PUSH1 0x20 ADD PUSH1 0x40 MLOAD SWAP1 DUP2 ADD PUSH1 0x40 MSTORE DUP1 SWAP3 SWAP2 SWAP1 DUP2 DUP2 MSTORE PUSH1 0x20 ADD DUP3 DUP1 SLOAD PUSH2 0x7FD SWAP1 PUSH2 0x1B5A JUMP JUMPDEST DUP1 ISZERO PUSH2 0x84A JUMPI DUP1 PUSH1 0x1F LT PUSH2 0x81F JUMPI PUSH2 0x100 DUP1 DUP4 SLOAD DIV MUL DUP4 MSTORE SWAP2 PUSH1 0x20 ADD SWAP2 PUSH2 0x84A JUMP JUMPDEST DUP3 ADD SWAP2 SWAP1 PUSH1 0x0 MSTORE PUSH1 0x20 PUSH1 0x0 KECCAK256 SWAP1 JUMPDEST DUP2 SLOAD DUP2 MSTORE SWAP1 PUSH1 0x1 ADD SWAP1 PUSH1 0x20 ADD DUP1 DUP4 GT PUSH2 0x82D JUMPI DUP3 SWAP1 SUB PUSH1 0x1F AND DUP3 ADD SWAP2 JUMPDEST POP POP POP POP POP DUP2 MSTORE PUSH1 0x20 ADD PUSH1 0x2 DUP3 ADD SLOAD DUP2 MSTORE POP POP SWAP1 POP SWAP2 SWAP1 POP JUMP JUMPDEST PUSH32 0x0 PUSH20 0xFFFFFFFFFFFFFFFFFFFFFFFFFFFFFFFFFFFFFFFF AND CALLER PUSH20 0xFFFFFFFFFFFFFFFFFFFFFFFFFFFFFFFFFFFFFFFF AND EQ PUSH2 0x8F2 JUMPI PUSH1 0x40 MLOAD PUSH32 0x8C379A000000000000000000000000000000000000000000000000000000000 DUP2 MSTORE PUSH1 0x4 ADD PUSH2 0x8E9 SWAP1 PUSH2 0x1C43 JUMP JUMPDEST PUSH1 0x40 MLOAD DUP1 SWAP2 SUB SWAP1 REVERT JUMPDEST PUSH1 0x0 PUSH1 0x1 SWAP1 SLOAD SWAP1 PUSH2 0x100 EXP SWAP1 DIV PUSH1 0xFF AND ISZERO PUSH2 0x942 JUMPI PUSH1 0x40 MLOAD PUSH32 0x8C379A000000000000000000000000000000000000000000000000000000000 DUP2 MSTORE PUSH1 0x4 ADD PUSH2 0x939 SWAP1 PUSH2 0x1CAF JUMP JUMPDEST PUSH1 0x40 MLOAD DUP1 SWAP2 SUB SWAP1 REVERT JUMPDEST PUSH1 0x0 DUP2 MLOAD GT PUSH2 0x986 JUMPI PUSH1 0x40 MLOAD PUSH32 0x8C379A000000000000000000000000000000000000000000000000000000000 DUP2 MSTORE PUSH1 0x4 ADD PUSH2 0x97D SWAP1 PUSH2 0x1D1B JUMP JUMPDEST PUSH1 0x40 MLOAD DUP1 SWAP2 SUB SWAP1 REVERT JUMPDEST PUSH1 0x0 PUSH1 0x1 DUP1 DUP1 SLOAD SWAP1 POP PUSH2 0x999 SWAP2 SWAP1 PUSH2 0x1AF7 JUMP JUMPDEST SWAP1 POP PUSH1 0x1 PUSH1 0x40 MLOAD DUP1 PUSH1 0x60 ADD PUSH1 0x40 MSTORE DUP1 DUP4 DUP2 MSTORE PUSH1 0x20 ADD DUP5 DUP2 MSTORE PUSH1 0x20 ADD PUSH1 0x0 DUP2 MSTORE POP SWAP1 DUP1 PUSH1 0x1 DUP2 SLOAD ADD DUP1 DUP3 SSTORE DUP1 SWAP2 POP POP PUSH1 0x1 SWAP1 SUB SWAP1 PUSH1 0x0 MSTORE PUSH1 0x20 PUSH1 0x0 KECCAK256 SWAP1 PUSH1 0x3 MUL ADD PUSH1 0x0 SWAP1 SWAP2 SWAP1 SWAP2 SWAP1 SWAP2 POP PUSH1 0x0 DUP3 ADD MLOAD DUP2 PUSH1 0x0 ADD SSTORE PUSH1 0x20 DUP3 ADD MLOAD DUP2 PUSH1 0x1 ADD SWAP1 DUP2 PUSH2 0xA01 SWAP2 SWAP1 PUSH2 0x1EE7 JUMP JUMPDEST POP PUSH1 0x40 DUP3 ADD MLOAD DUP2 PUSH1 0x2 ADD SSTORE POP POP DUP1 PUSH32 0xE83B2A43E7E82D975C8A0A6D2F045153C869E111136A34D1889AB7B598E396A3 DUP4 PUSH1 0x40 MLOAD PUSH2 0xA3E SWAP2 SWAP1 PUSH2 0x17FD JUMP JUMPDEST PUSH1 0x40 MLOAD DUP1 SWAP2 SUB SWAP1 LOG2 POP POP JUMP JUMPDEST PUSH1 0x60 PUSH1 0x1 DUP1 SLOAD DUP1 PUSH1 0x20 MUL PUSH1 0x20 ADD PUSH1 0x40 MLOAD SWAP1 DUP2 ADD PUSH1 0x40 MSTORE DUP1 SWAP3 SWAP2 SWAP1 DUP2 DUP2 MSTORE PUSH1 0x20 ADD PUSH1 0x0 SWAP1 JUMPDEST DUP3 DUP3 LT ISZERO PUSH2 0xB46 JUMPI DUP4 DUP3 SWAP1 PUSH1 0x0 MSTORE PUSH1 0x20 PUSH1 0x0 KECCAK256 SWAP1 PUSH1 0x3 MUL ADD PUSH1 0x40 MLOAD DUP1 PUSH1 0x60 ADD PUSH1 0x40 MSTORE SWAP1 DUP2 PUSH1 0x0 DUP3 ADD SLOAD DUP2 MSTORE PUSH1 0x20 ADD PUSH1 0x1 DUP3 ADD DUP1 SLOAD PUSH2 0xAAB SWAP1 PUSH2 0x1B5A JUMP JUMPDEST DUP1 PUSH1 0x1F ADD PUSH1 0x20 DUP1 SWAP2 DIV MUL PUSH1 0x20 ADD PUSH1 0x40 MLOAD SWAP1 DUP2 ADD PUSH1 0x40 MSTORE DUP1 SWAP3 SWAP2 SWAP1 DUP2 DUP2 MSTORE PUSH1 0x20 ADD DUP3 DUP1 SLOAD PUSH2 0xAD7 SWAP1 PUSH2 0x1B5A JUMP JUMPDEST DUP1 ISZERO PUSH2 0xB24 JUMPI DUP1 PUSH1 0x1F LT PUSH2 0xAF9 JUMPI PUSH2 0x100 DUP1 DUP4 SLOAD DIV MUL DUP4 MSTORE SWAP2 PUSH1 0x20 ADD SWAP2 PUSH2 0xB24 JUMP JUMPDEST DUP3 ADD SWAP2 SWAP1 PUSH1 0x0 MSTORE PUSH1 0x20 PUSH1 0x0 KECCAK256 SWAP1 JUMPDEST DUP2 SLOAD DUP2 MSTORE SWAP1 PUSH1 0x1 ADD SWAP1 PUSH1 0x20 ADD DUP1 DUP4 GT PUSH2 0xB07 JUMPI DUP3 SWAP1 SUB PUSH1 0x1F AND DUP3 ADD SWAP2 JUMPDEST POP POP POP POP POP DUP2 MSTORE PUSH1 0x20 ADD PUSH1 0x2 DUP3 ADD SLOAD DUP2 MSTORE POP POP DUP2 MSTORE PUSH1 0x20 ADD SWAP1 PUSH1 0x1 ADD SWAP1 PUSH2 0xA6E JUMP JUMPDEST POP POP POP POP SWAP1 POP SWAP1 JUMP JUMPDEST PUSH32 0x0 PUSH20 0xFFFFFFFFFFFFFFFFFFFFFFFFFFFFFFFFFFFFFFFF AND CALLER PUSH20 0xFFFFFFFFFFFFFFFFFFFFFFFFFFFFFFFFFFFFFFFF AND EQ PUSH2 0xBDD JUMPI PUSH1 0x40 MLOAD PUSH32 0x8C379A000000000000000000000000000000000000000000000000000000000 DUP2 MSTORE PUSH1 0x4 ADD PUSH2 0xBD4 SWAP1 PUSH2 0x1C43 JUMP JUMPDEST PUSH1 0x40 MLOAD DUP1 SWAP2 SUB SWAP1 REVERT JUMPDEST PUSH1 0x0 DUP1 SLOAD SWAP1 PUSH2 0x100 EXP SWAP1 DIV PUSH1 0xFF AND PUSH2 0xC2A JUMPI PUSH1 0x40 MLOAD PUSH32 0x8C379A000000000000000000000000000000000000000000000000000000000 DUP2 MSTORE PUSH1 0x4 ADD PUSH2 0xC21 SWAP1 PUSH2 0x1895 JUMP JUMPDEST PUSH1 0x40 MLOAD DUP1 SWAP2 SUB SWAP1 REVERT JUMPDEST PUSH1 0x0 DUP1 PUSH1 0x0 PUSH2 0x100 EXP DUP2 SLOAD DUP2 PUSH1 0xFF MUL NOT AND SWAP1 DUP4 ISZERO ISZERO MUL OR SWAP1 SSTORE POP PUSH32 0x562CD572B2BA3B666CD989FC4CA98419EC81E75F04528DF9D9D76FDB7807EE71 TIMESTAMP PUSH1 0x40 MLOAD PUSH2 0xC73 SWAP2 SWAP1 PUSH2 0x15A8 JUMP JUMPDEST PUSH1 0x40 MLOAD DUP1 SWAP2 SUB SWAP1 LOG1 JUMP JUMPDEST PUSH32 0x0 PUSH20 0xFFFFFFFFFFFFFFFFFFFFFFFFFFFFFFFFFFFFFFFF AND CALLER PUSH20 0xFFFFFFFFFFFFFFFFFFFFFFFFFFFFFFFFFFFFFFFF AND EQ PUSH2 0xD0B JUMPI PUSH1 0x40 MLOAD PUSH32 0x8C379A000000000000000000000000000000000000000000000000000000000 DUP2 MSTORE PUSH1 0x4 ADD PUSH2 0xD02 SWAP1 PUSH2 0x1C43 JUMP JUMPDEST PUSH1 0x40 MLOAD DUP1 SWAP2 SUB SWAP1 REVERT JUMPDEST PUSH1 0x0 PUSH1 0x1 SWAP1 SLOAD SWAP1 PUSH2 0x100 EXP SWAP1 DIV PUSH1 0xFF AND ISZERO PUSH2 0xD5B JUMPI PUSH1 0x40 MLOAD PUSH32 0x8C379A000000000000000000000000000000000000000000000000000000000 DUP2 MSTORE PUSH1 0x4 ADD PUSH2 0xD52 SWAP1 PUSH2 0x2005 JUMP JUMPDEST PUSH1 0x40 MLOAD DUP1 SWAP2 SUB SWAP1 REVERT JUMPDEST PUSH1 0x0 PUSH1 0x1 DUP1 SLOAD SWAP1 POP GT PUSH2 0xDA3 JUMPI PUSH1 0x40 MLOAD PUSH32 0x8C379A000000000000000000000000000000000000000000000000000000000 DUP2 MSTORE PUSH1 0x4 ADD PUSH2 0xD9A SWAP1 PUSH2 0x2071 JUMP JUMPDEST PUSH1 0x40 MLOAD DUP1 SWAP2 SUB SWAP1 REVERT JUMPDEST PUSH1 0x1 PUSH1 0x0 DUP1 PUSH2 0x100 EXP DUP2 SLOAD DUP2 PUSH1 0xFF MUL NOT AND SWAP1 DUP4 ISZERO ISZERO MUL OR SWAP1 SSTORE POP PUSH1 0x1 PUSH1 0x0 PUSH1 0x1 PUSH2 0x100 EXP DUP2 SLOAD DUP2 PUSH1 0xFF MUL NOT AND SWAP1 DUP4 ISZERO ISZERO MUL OR SWAP1 SSTORE POP PUSH32 0x159EEE87222A0489C529F2153C26AD65D718F2CC33EBAA8D399D1DD5B39FACAA TIMESTAMP PUSH1 0x40 MLOAD PUSH2 0xE07 SWAP2 SWAP1 PUSH2 0x15A8 JUMP JUMPDEST PUSH1 0x40 MLOAD DUP1 SWAP2 SUB SWAP1 LOG1 JUMP JUMPDEST PUSH1 0x60 PUSH1 0x0 DUP1 SLOAD SWAP1 PUSH2 0x100 EXP SWAP1 DIV PUSH1 0xFF AND ISZERO PUSH2 0xE61 JUMPI PUSH1 0x40 MLOAD PUSH32 0x8C379A000000000000000000000000000000000000000000000000000000000 DUP2 MSTORE PUSH1 0x4 ADD PUSH2 0xE58 SWAP1 PUSH2 0x20DD JUMP JUMPDEST PUSH1 0x40 MLOAD DUP1 SWAP2 SUB SWAP1 REVERT JUMPDEST PUSH1 0x0 PUSH1 0x1 DUP1 SLOAD SWAP1 POP GT PUSH2 0xEA9 JUMPI PUSH1 0x40 MLOAD PUSH32 0x8C379A000000000000000000000000000000000000000000000000000000000 DUP2 MSTORE PUSH1 0x4 ADD PUSH2 0xEA0 SWAP1 PUSH2 0x2071 JUMP JUMPDEST PUSH1 0x40 MLOAD DUP1 SWAP2 SUB SWAP1 REVERT JUMPDEST PUSH1 0x0 DUP1 PUSH1 0x0 JUMPDEST PUSH1 0x1 DUP1 SLOAD SWAP1 POP DUP2 LT ISZERO PUSH2 0xF22 JUMPI DUP3 PUSH1 0x1 DUP3 DUP2 SLOAD DUP2 LT PUSH2 0xED1 JUMPI PUSH2 0xED0 PUSH2 0x1AC8 JUMP JUMPDEST JUMPDEST SWAP1 PUSH1 0x0 MSTORE PUSH1 0x20 PUSH1 0x0 KECCAK256 SWAP1 PUSH1 0x3 MUL ADD PUSH1 0x2 ADD SLOAD GT ISZERO PUSH2 0xF15 JUMPI PUSH1 0x1 DUP2 DUP2 SLOAD DUP2 LT PUSH2 0xEFD JUMPI PUSH2 0xEFC PUSH2 0x1AC8 JUMP JUMPDEST JUMPDEST SWAP1 PUSH1 0x0 MSTORE PUSH1 0x20 PUSH1 0x0 KECCAK256 SWAP1 PUSH1 0x3 MUL ADD PUSH1 0x2 ADD SLOAD SWAP3 POP DUP1 SWAP2 POP JUMPDEST DUP1 DUP1 PUSH1 0x1 ADD SWAP2 POP POP PUSH2 0xEAF JUMP JUMPDEST POP PUSH1 0x1 DUP2 DUP2 SLOAD DUP2 LT PUSH2 0xF37 JUMPI PUSH2 0xF36 PUSH2 0x1AC8 JUMP JUMPDEST JUMPDEST SWAP1 PUSH1 0x0 MSTORE PUSH1 0x20 PUSH1 0x0 KECCAK256 SWAP1 PUSH1 0x3 MUL ADD PUSH1 0x1 ADD DUP1 SLOAD PUSH2 0xF53 SWAP1 PUSH2 0x1B5A JUMP JUMPDEST DUP1 PUSH1 0x1F ADD PUSH1 0x20 DUP1 SWAP2 DIV MUL PUSH1 0x20 ADD PUSH1 0x40 MLOAD SWAP1 DUP2 ADD PUSH1 0x40 MSTORE DUP1 SWAP3 SWAP2 SWAP1 DUP2 DUP2 MSTORE PUSH1 0x20 ADD DUP3 DUP1 SLOAD PUSH2 0xF7F SWAP1 PUSH2 0x1B5A JUMP JUMPDEST DUP1 ISZERO PUSH2 0xFCC JUMPI DUP1 PUSH1 0x1F LT PUSH2 0xFA1 JUMPI PUSH2 0x100 DUP1 DUP4 SLOAD DIV MUL DUP4 MSTORE SWAP2 PUSH1 0x20 ADD SWAP2 PUSH2 0xFCC JUMP JUMPDEST DUP3 ADD SWAP2 SWAP1 PUSH1 0x0 MSTORE PUSH1 0x20 PUSH1 0x0 KECCAK256 SWAP1 JUMPDEST DUP2 SLOAD DUP2 MSTORE SWAP1 PUSH1 0x1 ADD SWAP1 PUSH1 0x20 ADD DUP1 DUP4 GT PUSH2 0xFAF JUMPI DUP3 SWAP1 SUB PUSH1 0x1F AND DUP3 ADD SWAP2 JUMPDEST POP POP POP POP POP SWAP3 POP POP POP SWAP1 JUMP JUMPDEST PUSH1 0x2 PUSH1 0x20 MSTORE DUP1 PUSH1 0x0 MSTORE PUSH1 0x40 PUSH1 0x0 KECCAK256 PUSH1 0x0 SWAP2 POP SLOAD SWAP1 PUSH2 0x100 EXP SWAP1 DIV PUSH1 0xFF AND DUP2 JUMP JUMPDEST PUSH32 0x0 DUP2 JUMP JUMPDEST PUSH32 0x0 PUSH20 0xFFFFFFFFFFFFFFFFFFFFFFFFFFFFFFFFFFFFFFFF AND CALLER PUSH20 0xFFFFFFFFFFFFFFFFFFFFFFFFFFFFFFFFFFFFFFFF AND EQ PUSH2 0x10AA JUMPI PUSH1 0x40 MLOAD PUSH32 0x8C379A000000000000000000000000000000000000000000000000000000000 DUP2 MSTORE PUSH1 0x4 ADD PUSH2 0x10A1 SWAP1 PUSH2 0x1C43 JUMP JUMPDEST PUSH1 0x40 MLOAD DUP1 SWAP2 SUB SWAP1 REVERT JUMPDEST PUSH1 0x0 PUSH20 0xFFFFFFFFFFFFFFFFFFFFFFFFFFFFFFFFFFFFFFFF AND DUP2 PUSH20 0xFFFFFFFFFFFFFFFFFFFFFFFFFFFFFFFFFFFFFFFF AND SUB PUSH2 0x1119 JUMPI PUSH1 0x40 MLOAD PUSH32 0x8C379A000000000000000000000000000000000000000000000000000000000 DUP2 MSTORE PUSH1 0x4 ADD PUSH2 0x1110 SWAP1 PUSH2 0x2149 JUMP JUMPDEST PUSH1 0x40 MLOAD DUP1 SWAP2 SUB SWAP1 REVERT JUMPDEST PUSH1 0x2 PUSH1 0x0 DUP3 PUSH20 0xFFFFFFFFFFFFFFFFFFFFFFFFFFFFFFFFFFFFFFFF AND PUSH20 0xFFFFFFFFFFFFFFFFFFFFFFFFFFFFFFFFFFFFFFFF AND DUP2 MSTORE PUSH1 0x20 ADD SWAP1 DUP2 MSTORE PUSH1 0x20 ADD PUSH1 0x0 KECCAK256 PUSH1 0x0 SWAP1 SLOAD SWAP1 PUSH2 0x100 EXP SWAP1 DIV PUSH1 0xFF AND ISZERO PUSH2 0x11A6 JUMPI PUSH1 0x40 MLOAD PUSH32 0x8C379A000000000000000000000000000000000000000000000000000000000 DUP2 MSTORE PUSH1 0x4 ADD PUSH2 0x119D SWAP1 PUSH2 0x21B5 JUMP JUMPDEST PUSH1 0x40 MLOAD DUP1 SWAP2 SUB SWAP1 REVERT JUMPDEST PUSH1 0x1 PUSH1 0x2 PUSH1 0x0 DUP4 PUSH20 0xFFFFFFFFFFFFFFFFFFFFFFFFFFFFFFFFFFFFFFFF AND PUSH20 0xFFFFFFFFFFFFFFFFFFFFFFFFFFFFFFFFFFFFFFFF AND DUP2 MSTORE PUSH1 0x20 ADD SWAP1 DUP2 MSTORE PUSH1 0x20 ADD PUSH1 0x0 KECCAK256 PUSH1 0x0 PUSH2 0x100 EXP DUP2 SLOAD DUP2 PUSH1 0xFF MUL NOT AND SWAP1 DUP4 ISZERO ISZERO MUL OR SWAP1 SSTORE POP DUP1 PUSH20 0xFFFFFFFFFFFFFFFFFFFFFFFFFFFFFFFFFFFFFFFF AND PUSH32 0xCA65A9F1F88BD7257AC852D1062853358F81CDC56F9634DCBEED6090F8DFB43 PUSH1 0x40 MLOAD PUSH1 0x40 MLOAD DUP1 SWAP2 SUB SWAP1 LOG2 POP JUMP JUMPDEST PUSH1 0x40 MLOAD DUP1 PUSH1 0x60 ADD PUSH1 0x40 MSTORE DUP1 PUSH1 0x0 DUP2 MSTORE PUSH1 0x20 ADD PUSH1 0x60 DUP2 MSTORE PUSH1 0x20 ADD PUSH1 0x0 DUP2 MSTORE POP SWAP1 JUMP JUMPDEST PUSH1 0x0 PUSH1 0x40 MLOAD SWAP1 POP SWAP1 JUMP JUMPDEST PUSH1 0x0 DUP1 REVERT JUMPDEST PUSH1 0x0 DUP1 REVERT JUMPDEST PUSH1 0x0 DUP2 SWAP1 POP SWAP2 SWAP1 POP JUMP JUMPDEST PUSH2 0x128C DUP2 PUSH2 0x1279 JUMP JUMPDEST DUP2 EQ PUSH2 0x1297 JUMPI PUSH1 0x0 DUP1 REVERT JUMPDEST POP JUMP JUMPDEST PUSH1 0x0 DUP2 CALLDATALOAD SWAP1 POP PUSH2 0x12A9 DUP2 PUSH2 0x1283 JUMP JUMPDEST SWAP3 SWAP2 POP POP JUMP JUMPDEST PUSH1 0x0 PUSH1 0x20 DUP3 DUP5 SUB SLT ISZERO PUSH2 0x12C5 JUMPI PUSH2 0x12C4 PUSH2 0x126F JUMP JUMPDEST JUMPDEST PUSH1 0x0 PUSH2 0x12D3 DUP5 DUP3 DUP6 ADD PUSH2 0x129A JUMP JUMPDEST SWAP2 POP POP SWAP3 SWAP2 POP POP JUMP JUMPDEST PUSH1 0x0 DUP2 MLOAD SWAP1 POP SWAP2 SWAP1 POP JUMP JUMPDEST PUSH1 0x0 DUP3 DUP3 MSTORE PUSH1 0x20 DUP3 ADD SWAP1 POP SWAP3 SWAP2 POP POP JUMP JUMPDEST PUSH1 0x0 DUP2 SWAP1 POP PUSH1 0x20 DUP3 ADD SWAP1 POP SWAP2 SWAP1 POP JUMP JUMPDEST PUSH2 0x1311 DUP2 PUSH2 0x1279 JUMP JUMPDEST DUP3 MSTORE POP POP JUMP JUMPDEST PUSH1 0x0 DUP2 MLOAD SWAP1 POP SWAP2 SWAP1 POP JUMP JUMPDEST PUSH1 0x0 DUP3 DUP3 MSTORE PUSH1 0x20 DUP3 ADD SWAP1 POP SWAP3 SWAP2 POP POP JUMP JUMPDEST PUSH1 0x0 JUMPDEST DUP4 DUP2 LT ISZERO PUSH2 0x1351 JUMPI DUP1 DUP3 ADD MLOAD DUP2 DUP5 ADD MSTORE PUSH1 0x20 DUP2 ADD SWAP1 POP PUSH2 0x1336 JUMP JUMPDEST PUSH1 0x0 DUP5 DUP5 ADD MSTORE POP POP POP POP JUMP JUMPDEST PUSH1 0x0 PUSH1 0x1F NOT PUSH1 0x1F DUP4 ADD AND SWAP1 POP SWAP2 SWAP1 POP JUMP JUMPDEST PUSH1 0x0 PUSH2 0x1379 DUP3 PUSH2 0x1317 JUMP JUMPDEST PUSH2 0x1383 DUP2 DUP6 PUSH2 0x1322 JUMP JUMPDEST SWAP4 POP PUSH2 0x1393 DUP2 DUP6 PUSH1 0x20 DUP7 ADD PUSH2 0x1333 JUMP JUMPDEST PUSH2 0x139C DUP2 PUSH2 0x135D JUMP JUMPDEST DUP5 ADD SWAP2 POP POP SWAP3 SWAP2 POP POP JUMP JUMPDEST PUSH1 0x0 PUSH1 0x60 DUP4 ADD PUSH1 0x0 DUP4 ADD MLOAD PUSH2 0x13BF PUSH1 0x0 DUP7 ADD DUP3 PUSH2 0x1308 JUMP JUMPDEST POP PUSH1 0x20 DUP4 ADD MLOAD DUP5 DUP3 SUB PUSH1 0x20 DUP7 ADD MSTORE PUSH2 0x13D7 DUP3 DUP3 PUSH2 0x136E JUMP JUMPDEST SWAP2 POP POP PUSH1 0x40 DUP4 ADD MLOAD PUSH2 0x13EC PUSH1 0x40 DUP7 ADD DUP3 PUSH2 0x1308 JUMP JUMPDEST POP DUP1 SWAP2 POP POP SWAP3 SWAP2 POP POP JUMP JUMPDEST PUSH1 0x0 PUSH2 0x1403 DUP4 DUP4 PUSH2 0x13A7 JUMP JUMPDEST SWAP1 POP SWAP3 SWAP2 POP POP JUMP JUMPDEST PUSH1 0x0 PUSH1 0x20 DUP3 ADD SWAP1 POP SWAP2 SWAP1 POP JUMP JUMPDEST PUSH1 0x0 PUSH2 0x1423 DUP3 PUSH2 0x12DC JUMP JUMPDEST PUSH2 0x142D DUP2 DUP6 PUSH2 0x12E7 JUMP JUMPDEST SWAP4 POP DUP4 PUSH1 0x20 DUP3 MUL DUP6 ADD PUSH2 0x143F DUP6 PUSH2 0x12F8 JUMP JUMPDEST DUP1 PUSH1 0x0 JUMPDEST DUP6 DUP2 LT ISZERO PUSH2 0x147B JUMPI DUP5 DUP5 SUB DUP10 MSTORE DUP2 MLOAD PUSH2 0x145C DUP6 DUP3 PUSH2 0x13F7 JUMP JUMPDEST SWAP5 POP PUSH2 0x1467 DUP4 PUSH2 0x140B JUMP JUMPDEST SWAP3 POP PUSH1 0x20 DUP11 ADD SWAP10 POP POP PUSH1 0x1 DUP2 ADD SWAP1 POP PUSH2 0x1443 JUMP JUMPDEST POP DUP3 SWAP8 POP DUP8 SWAP6 POP POP POP POP POP POP SWAP3 SWAP2 POP POP JUMP JUMPDEST PUSH1 0x0 PUSH1 0x20 DUP3 ADD SWAP1 POP DUP2 DUP2 SUB PUSH1 0x0 DUP4 ADD MSTORE PUSH2 0x14A7 DUP2 DUP5 PUSH2 0x1418 JUMP JUMPDEST SWAP1 POP SWAP3 SWAP2 POP POP JUMP JUMPDEST PUSH1 0x0 PUSH20 0xFFFFFFFFFFFFFFFFFFFFFFFFFFFFFFFFFFFFFFFF DUP3 AND SWAP1 POP SWAP2 SWAP1 POP JUMP JUMPDEST PUSH1 0x0 PUSH2 0x14DA DUP3 PUSH2 0x14AF JUMP JUMPDEST SWAP1 POP SWAP2 SWAP1 POP JUMP JUMPDEST PUSH2 0x14EA DUP2 PUSH2 0x14CF JUMP JUMPDEST DUP2 EQ PUSH2 0x14F5 JUMPI PUSH1 0x0 DUP1 REVERT JUMPDEST POP JUMP JUMPDEST PUSH1 0x0 DUP2 CALLDATALOAD SWAP1 POP PUSH2 0x1507 DUP2 PUSH2 0x14E1 JUMP JUMPDEST SWAP3 SWAP2 POP POP JUMP JUMPDEST PUSH1 0x0 PUSH1 0x20 DUP3 DUP5 SUB SLT ISZERO PUSH2 0x1523 JUMPI PUSH2 0x1522 PUSH2 0x126F JUMP JUMPDEST JUMPDEST PUSH1 0x0 PUSH2 0x1531 DUP5 DUP3 DUP6 ADD PUSH2 0x14F8 JUMP JUMPDEST SWAP2 POP POP SWAP3 SWAP2 POP POP JUMP JUMPDEST PUSH1 0x0 DUP2 ISZERO ISZERO SWAP1 POP SWAP2 SWAP1 POP JUMP JUMPDEST PUSH2 0x154F DUP2 PUSH2 0x153A JUMP JUMPDEST DUP3 MSTORE POP POP JUMP JUMPDEST PUSH1 0x0 PUSH1 0x20 DUP3 ADD SWAP1 POP PUSH2 0x156A PUSH1 0x0 DUP4 ADD DUP5 PUSH2 0x1546 JUMP JUMPDEST SWAP3 SWAP2 POP POP JUMP JUMPDEST PUSH1 0x0 PUSH1 0x40 DUP3 ADD SWAP1 POP PUSH2 0x1585 PUSH1 0x0 DUP4 ADD DUP6 PUSH2 0x1546 JUMP JUMPDEST PUSH2 0x1592 PUSH1 0x20 DUP4 ADD DUP5 PUSH2 0x1546 JUMP JUMPDEST SWAP4 SWAP3 POP POP POP JUMP JUMPDEST PUSH2 0x15A2 DUP2 PUSH2 0x1279 JUMP JUMPDEST DUP3 MSTORE POP POP JUMP JUMPDEST PUSH1 0x0 PUSH1 0x20 DUP3 ADD SWAP1 POP PUSH2 0x15BD PUSH1 0x0 DUP4 ADD DUP5 PUSH2 0x1599 JUMP JUMPDEST SWAP3 SWAP2 POP POP JUMP JUMPDEST PUSH1 0x0 PUSH1 0x60 DUP4 ADD PUSH1 0x0 DUP4 ADD MLOAD PUSH2 0x15DB PUSH1 0x0 DUP7 ADD DUP3 PUSH2 0x1308 JUMP JUMPDEST POP PUSH1 0x20 DUP4 ADD MLOAD DUP5 DUP3 SUB PUSH1 0x20 DUP7 ADD MSTORE PUSH2 0x15F3 DUP3 DUP3 PUSH2 0x136E JUMP JUMPDEST SWAP2 POP POP PUSH1 0x40 DUP4 ADD MLOAD PUSH2 0x1608 PUSH1 0x40 DUP7 ADD DUP3 PUSH2 0x1308 JUMP JUMPDEST POP DUP1 SWAP2 POP POP SWAP3 SWAP2 POP POP JUMP JUMPDEST PUSH1 0x0 PUSH1 0x20 DUP3 ADD SWAP1 POP DUP2 DUP2 SUB PUSH1 0x0 DUP4 ADD MSTORE PUSH2 0x162D DUP2 DUP5 PUSH2 0x15C3 JUMP JUMPDEST SWAP1 POP SWAP3 SWAP2 POP POP JUMP JUMPDEST PUSH1 0x0 DUP1 REVERT JUMPDEST PUSH1 0x0 DUP1 REVERT JUMPDEST PUSH32 0x4E487B7100000000000000000000000000000000000000000000000000000000 PUSH1 0x0 MSTORE PUSH1 0x41 PUSH1 0x4 MSTORE PUSH1 0x24 PUSH1 0x0 REVERT JUMPDEST PUSH2 0x1677 DUP3 PUSH2 0x135D JUMP JUMPDEST DUP2 ADD DUP2 DUP2 LT PUSH8 0xFFFFFFFFFFFFFFFF DUP3 GT OR ISZERO PUSH2 0x1696 JUMPI PUSH2 0x1695 PUSH2 0x163F JUMP JUMPDEST JUMPDEST DUP1 PUSH1 0x40 MSTORE POP POP POP JUMP JUMPDEST PUSH1 0x0 PUSH2 0x16A9 PUSH2 0x1265 JUMP JUMPDEST SWAP1 POP PUSH2 0x16B5 DUP3 DUP3 PUSH2 0x166E JUMP JUMPDEST SWAP2 SWAP1 POP JUMP JUMPDEST PUSH1 0x0 PUSH8 0xFFFFFFFFFFFFFFFF DUP3 GT ISZERO PUSH2 0x16D5 JUMPI PUSH2 0x16D4 PUSH2 0x163F JUMP JUMPDEST JUMPDEST PUSH2 0x16DE DUP3 PUSH2 0x135D JUMP JUMPDEST SWAP1 POP PUSH1 0x20 DUP2 ADD SWAP1 POP SWAP2 SWAP1 POP JUMP JUMPDEST DUP3 DUP2 DUP4 CALLDATACOPY PUSH1 0x0 DUP4 DUP4 ADD MSTORE POP POP POP JUMP JUMPDEST PUSH1 0x0 PUSH2 0x170D PUSH2 0x1708 DUP5 PUSH2 0x16BA JUMP JUMPDEST PUSH2 0x169F JUMP JUMPDEST SWAP1 POP DUP3 DUP2 MSTORE PUSH1 0x20 DUP2 ADD DUP5 DUP5 DUP5 ADD GT ISZERO PUSH2 0x1729 JUMPI PUSH2 0x1728 PUSH2 0x163A JUMP JUMPDEST JUMPDEST PUSH2 0x1734 DUP5 DUP3 DUP6 PUSH2 0x16EB JUMP JUMPDEST POP SWAP4 SWAP3 POP POP POP JUMP JUMPDEST PUSH1 0x0 DUP3 PUSH1 0x1F DUP4 ADD SLT PUSH2 0x1751 JUMPI PUSH2 0x1750 PUSH2 0x1635 JUMP JUMPDEST JUMPDEST DUP2 CALLDATALOAD PUSH2 0x1761 DUP5 DUP3 PUSH1 0x20 DUP7 ADD PUSH2 0x16FA JUMP JUMPDEST SWAP2 POP POP SWAP3 SWAP2 POP POP JUMP JUMPDEST PUSH1 0x0 PUSH1 0x20 DUP3 DUP5 SUB SLT ISZERO PUSH2 0x1780 JUMPI PUSH2 0x177F PUSH2 0x126F JUMP JUMPDEST JUMPDEST PUSH1 0x0 DUP3 ADD CALLDATALOAD PUSH8 0xFFFFFFFFFFFFFFFF DUP2 GT ISZERO PUSH2 0x179E JUMPI PUSH2 0x179D PUSH2 0x1274 JUMP JUMPDEST JUMPDEST PUSH2 0x17AA DUP5 DUP3 DUP6 ADD PUSH2 0x173C JUMP JUMPDEST SWAP2 POP POP SWAP3 SWAP2 POP POP JUMP JUMPDEST PUSH1 0x0 DUP3 DUP3 MSTORE PUSH1 0x20 DUP3 ADD SWAP1 POP SWAP3 SWAP2 POP POP JUMP JUMPDEST PUSH1 0x0 PUSH2 0x17CF DUP3 PUSH2 0x1317 JUMP JUMPDEST PUSH2 0x17D9 DUP2 DUP6 PUSH2 0x17B3 JUMP JUMPDEST SWAP4 POP PUSH2 0x17E9 DUP2 DUP6 PUSH1 0x20 DUP7 ADD PUSH2 0x1333 JUMP JUMPDEST PUSH2 0x17F2 DUP2 PUSH2 0x135D JUMP JUMPDEST DUP5 ADD SWAP2 POP POP SWAP3 SWAP2 POP POP JUMP JUMPDEST PUSH1 0x0 PUSH1 0x20 DUP3 ADD SWAP1 POP DUP2 DUP2 SUB PUSH1 0x0 DUP4 ADD MSTORE PUSH2 0x1817 DUP2 DUP5 PUSH2 0x17C4 JUMP JUMPDEST SWAP1 POP SWAP3 SWAP2 POP POP JUMP JUMPDEST PUSH2 0x1828 DUP2 PUSH2 0x14CF JUMP JUMPDEST DUP3 MSTORE POP POP JUMP JUMPDEST PUSH1 0x0 PUSH1 0x20 DUP3 ADD SWAP1 POP PUSH2 0x1843 PUSH1 0x0 DUP4 ADD DUP5 PUSH2 0x181F JUMP JUMPDEST SWAP3 SWAP2 POP POP JUMP JUMPDEST PUSH32 0x456C656374696F6E206E6F742061637469766500000000000000000000000000 PUSH1 0x0 DUP3 ADD MSTORE POP JUMP JUMPDEST PUSH1 0x0 PUSH2 0x187F PUSH1 0x13 DUP4 PUSH2 0x17B3 JUMP JUMPDEST SWAP2 POP PUSH2 0x188A DUP3 PUSH2 0x1849 JUMP JUMPDEST PUSH1 0x20 DUP3 ADD SWAP1 POP SWAP2 SWAP1 POP JUMP JUMPDEST PUSH1 0x0 PUSH1 0x20 DUP3 ADD SWAP1 POP DUP2 DUP2 SUB PUSH1 0x0 DUP4 ADD MSTORE PUSH2 0x18AE DUP2 PUSH2 0x1872 JUMP JUMPDEST SWAP1 POP SWAP2 SWAP1 POP JUMP JUMPDEST PUSH32 0x456C656374696F6E206E6F742073746172746564000000000000000000000000 PUSH1 0x0 DUP3 ADD MSTORE POP JUMP JUMPDEST PUSH1 0x0 PUSH2 0x18EB PUSH1 0x14 DUP4 PUSH2 0x17B3 JUMP JUMPDEST SWAP2 POP PUSH2 0x18F6 DUP3 PUSH2 0x18B5 JUMP JUMPDEST PUSH1 0x20 DUP3 ADD SWAP1 POP SWAP2 SWAP1 POP JUMP JUMPDEST PUSH1 0x0 PUSH1 0x20 DUP3 ADD SWAP1 POP DUP2 DUP2 SUB PUSH1 0x0 DUP4 ADD MSTORE PUSH2 0x191A DUP2 PUSH2 0x18DE JUMP JUMPDEST SWAP1 POP SWAP2 SWAP1 POP JUMP JUMPDEST PUSH32 0x4E6F742072656769737465726564000000000000000000000000000000000000 PUSH1 0x0 DUP3 ADD MSTORE POP JUMP JUMPDEST PUSH1 0x0 PUSH2 0x1957 PUSH1 0xE DUP4 PUSH2 0x17B3 JUMP JUMPDEST SWAP2 POP PUSH2 0x1962 DUP3 PUSH2 0x1921 JUMP JUMPDEST PUSH1 0x20 DUP3 ADD SWAP1 POP SWAP2 SWAP1 POP JUMP JUMPDEST PUSH1 0x0 PUSH1 0x20 DUP3 ADD SWAP1 POP DUP2 DUP2 SUB PUSH1 0x0 DUP4 ADD MSTORE PUSH2 0x1986 DUP2 PUSH2 0x194A JUMP JUMPDEST SWAP1 POP SWAP2 SWAP1 POP JUMP JUMPDEST PUSH32 0x416C726561647920766F74656400000000000000000000000000000000000000 PUSH1 0x0 DUP3 ADD MSTORE POP JUMP JUMPDEST PUSH1 0x0 PUSH2 0x19C3 PUSH1 0xD DUP4 PUSH2 0x17B3 JUMP JUMPDEST SWAP2 POP PUSH2 0x19CE DUP3 PUSH2 0x198D JUMP JUMPDEST PUSH1 0x20 DUP3 ADD SWAP1 POP SWAP2 SWAP1 POP JUMP JUMPDEST PUSH1 0x0 PUSH1 0x20 DUP3 ADD SWAP1 POP DUP2 DUP2 SUB PUSH1 0x0 DUP4 ADD MSTORE PUSH2 0x19F2 DUP2 PUSH2 0x19B6 JUMP JUMPDEST SWAP1 POP SWAP2 SWAP1 POP JUMP JUMPDEST PUSH32 0x496E76616C69642063616E646964617465000000000000000000000000000000 PUSH1 0x0 DUP3 ADD MSTORE POP JUMP JUMPDEST PUSH1 0x0 PUSH2 0x1A2F PUSH1 0x11 DUP4 PUSH2 0x17B3 JUMP JUMPDEST SWAP2 POP PUSH2 0x1A3A DUP3 PUSH2 0x19F9 JUMP JUMPDEST PUSH1 0x20 DUP3 ADD SWAP1 POP SWAP2 SWAP1 POP JUMP JUMPDEST PUSH1 0x0 PUSH1 0x20 DUP3 ADD SWAP1 POP DUP2 DUP2 SUB PUSH1 0x0 DUP4 ADD MSTORE PUSH2 0x1A5E DUP2 PUSH2 0x1A22 JUMP JUMPDEST SWAP1 POP SWAP2 SWAP1 POP JUMP JUMPDEST PUSH32 0x4E487B7100000000000000000000000000000000000000000000000000000000 PUSH1 0x0 MSTORE PUSH1 0x11 PUSH1 0x4 MSTORE PUSH1 0x24 PUSH1 0x0 REVERT JUMPDEST PUSH1 0x0 PUSH2 0x1A9F DUP3 PUSH2 0x1279 JUMP JUMPDEST SWAP2 POP PUSH2 0x1AAA DUP4 PUSH2 0x1279 JUMP JUMPDEST SWAP3 POP DUP3 DUP3 SUB SWAP1 POP DUP2 DUP2 GT ISZERO PUSH2 0x1AC2 JUMPI PUSH2 0x1AC1 PUSH2 0x1A65 JUMP JUMPDEST JUMPDEST SWAP3 SWAP2 POP POP JUMP JUMPDEST PUSH32 0x4E487B7100000000000000000000000000000000000000000000000000000000 PUSH1 0x0 MSTORE PUSH1 0x32 PUSH1 0x4 MSTORE PUSH1 0x24 PUSH1 0x0 REVERT JUMPDEST PUSH1 0x0 PUSH2 0x1B02 DUP3 PUSH2 0x1279 JUMP JUMPDEST SWAP2 POP PUSH2 0x1B0D DUP4 PUSH2 0x1279 JUMP JUMPDEST SWAP3 POP DUP3 DUP3 ADD SWAP1 POP DUP1 DUP3 GT ISZERO PUSH2 0x1B25 JUMPI PUSH2 0x1B24 PUSH2 0x1A65 JUMP JUMPDEST JUMPDEST SWAP3 SWAP2 POP POP JUMP JUMPDEST PUSH32 0x4E487B7100000000000000000000000000000000000000000000000000000000 PUSH1 0x0 MSTORE PUSH1 0x22 PUSH1 0x4 MSTORE PUSH1 0x24 PUSH1 0x0 REVERT JUMPDEST PUSH1 0x0 PUSH1 0x2 DUP3 DIV SWAP1 POP PUSH1 0x1 DUP3 AND DUP1 PUSH2 0x1B72 JUMPI PUSH1 0x7F DUP3 AND SWAP2 POP JUMPDEST PUSH1 0x20 DUP3 LT DUP2 SUB PUSH2 0x1B85 JUMPI PUSH2 0x1B84 PUSH2 0x1B2B JUMP JUMPDEST JUMPDEST POP SWAP2 SWAP1 POP JUMP JUMPDEST PUSH32 0x496E76616C696420494400000000000000000000000000000000000000000000 PUSH1 0x0 DUP3 ADD MSTORE POP JUMP JUMPDEST PUSH1 0x0 PUSH2 0x1BC1 PUSH1 0xA DUP4 PUSH2 0x17B3 JUMP JUMPDEST SWAP2 POP PUSH2 0x1BCC DUP3 PUSH2 0x1B8B JUMP JUMPDEST PUSH1 0x20 DUP3 ADD SWAP1 POP SWAP2 SWAP1 POP JUMP JUMPDEST PUSH1 0x0 PUSH1 0x20 DUP3 ADD SWAP1 POP DUP2 DUP2 SUB PUSH1 0x0 DUP4 ADD MSTORE PUSH2 0x1BF0 DUP2 PUSH2 0x1BB4 JUMP JUMPDEST SWAP1 POP SWAP2 SWAP1 POP JUMP JUMPDEST PUSH32 0x4F6E6C792061646D696E20616C6C6F7765640000000000000000000000000000 PUSH1 0x0 DUP3 ADD MSTORE POP JUMP JUMPDEST PUSH1 0x0 PUSH2 0x1C2D PUSH1 0x12 DUP4 PUSH2 0x17B3 JUMP JUMPDEST SWAP2 POP PUSH2 0x1C38 DUP3 PUSH2 0x1BF7 JUMP JUMPDEST PUSH1 0x20 DUP3 ADD SWAP1 POP SWAP2 SWAP1 POP JUMP JUMPDEST PUSH1 0x0 PUSH1 0x20 DUP3 ADD SWAP1 POP DUP2 DUP2 SUB PUSH1 0x0 DUP4 ADD MSTORE PUSH2 0x1C5C DUP2 PUSH2 0x1C20 JUMP JUMPDEST SWAP1 POP SWAP2 SWAP1 POP JUMP JUMPDEST PUSH32 0x456C656374696F6E20616C726561647920737461727465640000000000000000 PUSH1 0x0 DUP3 ADD MSTORE POP JUMP JUMPDEST PUSH1 0x0 PUSH2 0x1C99 PUSH1 0x18 DUP4 PUSH2 0x17B3 JUMP JUMPDEST SWAP2 POP PUSH2 0x1CA4 DUP3 PUSH2 0x1C63 JUMP JUMPDEST PUSH1 0x20 DUP3 ADD SWAP1 POP SWAP2 SWAP1 POP JUMP JUMPDEST PUSH1 0x0 PUSH1 0x20 DUP3 ADD SWAP1 POP DUP2 DUP2 SUB PUSH1 0x0 DUP4 ADD MSTORE PUSH2 0x1CC8 DUP2 PUSH2 0x1C8C JUMP JUMPDEST SWAP1 POP SWAP2 SWAP1 POP JUMP JUMPDEST PUSH32 0x456D707479206E616D6500000000000000000000000000000000000000000000 PUSH1 0x0 DUP3 ADD MSTORE POP JUMP JUMPDEST PUSH1 0x0 PUSH2 0x1D05 PUSH1 0xA DUP4 PUSH2 0x17B3 JUMP JUMPDEST SWAP2 POP PUSH2 0x1D10 DUP3 PUSH2 0x1CCF JUMP JUMPDEST PUSH1 0x20 DUP3 ADD SWAP1 POP SWAP2 SWAP1 POP JUMP JUMPDEST PUSH1 0x0 PUSH1 0x20 DUP3 ADD SWAP1 POP DUP2 DUP2 SUB PUSH1 0x0 DUP4 ADD MSTORE PUSH2 0x1D34 DUP2 PUSH2 0x1CF8 JUMP JUMPDEST SWAP1 POP SWAP2 SWAP1 POP JUMP JUMPDEST PUSH1 0x0 DUP2 SWAP1 POP DUP2 PUSH1 0x0 MSTORE PUSH1 0x20 PUSH1 0x0 KECCAK256 SWAP1 POP SWAP2 SWAP1 POP JUMP JUMPDEST PUSH1 0x0 PUSH1 0x20 PUSH1 0x1F DUP4 ADD DIV SWAP1 POP SWAP2 SWAP1 POP JUMP JUMPDEST PUSH1 0x0 DUP3 DUP3 SHL SWAP1 POP SWAP3 SWAP2 POP POP JUMP JUMPDEST PUSH1 0x0 PUSH1 0x8 DUP4 MUL PUSH2 0x1D9D PUSH32 0xFFFFFFFFFFFFFFFFFFFFFFFFFFFFFFFFFFFFFFFFFFFFFFFFFFFFFFFFFFFFFFFF DUP3 PUSH2 0x1D60 JUMP JUMPDEST PUSH2 0x1DA7 DUP7 DUP4 PUSH2 0x1D60 JUMP JUMPDEST SWAP6 POP DUP1 NOT DUP5 AND SWAP4 POP DUP1 DUP7 AND DUP5 OR SWAP3 POP POP POP SWAP4 SWAP3 POP POP POP JUMP JUMPDEST PUSH1 0x0 DUP2 SWAP1 POP SWAP2 SWAP1 POP JUMP JUMPDEST PUSH1 0x0 PUSH2 0x1DE4 PUSH2 0x1DDF PUSH2 0x1DDA DUP5 PUSH2 0x1279 JUMP JUMPDEST PUSH2 0x1DBF JUMP JUMPDEST PUSH2 0x1279 JUMP JUMPDEST SWAP1 POP SWAP2 SWAP1 POP JUMP JUMPDEST PUSH1 0x0 DUP2 SWAP1 POP SWAP2 SWAP1 POP JUMP JUMPDEST PUSH2 0x1DFE DUP4 PUSH2 0x1DC9 JUMP JUMPDEST PUSH2 0x1E12 PUSH2 0x1E0A DUP3 PUSH2 0x1DEB JUMP JUMPDEST DUP5 DUP5 SLOAD PUSH2 0x1D6D JUMP JUMPDEST DUP3 SSTORE POP POP POP POP JUMP JUMPDEST PUSH1 0x0 SWAP1 JUMP JUMPDEST PUSH2 0x1E27 PUSH2 0x1E1A JUMP JUMPDEST PUSH2 0x1E32 DUP2 DUP5 DUP5 PUSH2 0x1DF5 JUMP JUMPDEST POP POP POP JUMP JUMPDEST JUMPDEST DUP2 DUP2 LT ISZERO PUSH2 0x1E56 JUMPI PUSH2 0x1E4B PUSH1 0x0 DUP3 PUSH2 0x1E1F JUMP JUMPDEST PUSH1 0x1 DUP2 ADD SWAP1 POP PUSH2 0x1E38 JUMP JUMPDEST POP POP JUMP JUMPDEST PUSH1 0x1F DUP3 GT ISZERO PUSH2 0x1E9B JUMPI PUSH2 0x1E6C DUP2 PUSH2 0x1D3B JUMP JUMPDEST PUSH2 0x1E75 DUP5 PUSH2 0x1D50 JUMP JUMPDEST DUP2 ADD PUSH1 0x20 DUP6 LT ISZERO PUSH2 0x1E84 JUMPI DUP2 SWAP1 POP JUMPDEST PUSH2 0x1E98 PUSH2 0x1E90 DUP6 PUSH2 0x1D50 JUMP JUMPDEST DUP4 ADD DUP3 PUSH2 0x1E37 JUMP JUMPDEST POP POP JUMPDEST POP POP POP JUMP JUMPDEST PUSH1 0x0 DUP3 DUP3 SHR SWAP1 POP SWAP3 SWAP2 POP POP JUMP JUMPDEST PUSH1 0x0 PUSH2 0x1EBE PUSH1 0x0 NOT DUP5 PUSH1 0x8 MUL PUSH2 0x1EA0 JUMP JUMPDEST NOT DUP1 DUP4 AND SWAP2 POP POP SWAP3 SWAP2 POP POP JUMP JUMPDEST PUSH1 0x0 PUSH2 0x1ED7 DUP4 DUP4 PUSH2 0x1EAD JUMP JUMPDEST SWAP2 POP DUP3 PUSH1 0x2 MUL DUP3 OR SWAP1 POP SWAP3 SWAP2 POP POP JUMP JUMPDEST PUSH2 0x1EF0 DUP3 PUSH2 0x1317 JUMP JUMPDEST PUSH8 0xFFFFFFFFFFFFFFFF DUP2 GT ISZERO PUSH2 0x1F09 JUMPI PUSH2 0x1F08 PUSH2 0x163F JUMP JUMPDEST JUMPDEST PUSH2 0x1F13 DUP3 SLOAD PUSH2 0x1B5A JUMP JUMPDEST PUSH2 0x1F1E DUP3 DUP3 DUP6 PUSH2 0x1E5A JUMP JUMPDEST PUSH1 0x0 PUSH1 0x20 SWAP1 POP PUSH1 0x1F DUP4 GT PUSH1 0x1 DUP2 EQ PUSH2 0x1F51 JUMPI PUSH1 0x0 DUP5 ISZERO PUSH2 0x1F3F JUMPI DUP3 DUP8 ADD MLOAD SWAP1 POP JUMPDEST PUSH2 0x1F49 DUP6 DUP3 PUSH2 0x1ECB JUMP JUMPDEST DUP7 SSTORE POP PUSH2 0x1FB1 JUMP JUMPDEST PUSH1 0x1F NOT DUP5 AND PUSH2 0x1F5F DUP7 PUSH2 0x1D3B JUMP JUMPDEST PUSH1 0x0 JUMPDEST DUP3 DUP2 LT ISZERO PUSH2 0x1F87 JUMPI DUP5 DUP10 ADD MLOAD DUP3 SSTORE PUSH1 0x1 DUP3 ADD SWAP2 POP PUSH1 0x20 DUP6 ADD SWAP5 POP PUSH1 0x20 DUP2 ADD SWAP1 POP PUSH2 0x1F62 JUMP JUMPDEST DUP7 DUP4 LT ISZERO PUSH2 0x1FA4 JUMPI DUP5 DUP10 ADD MLOAD PUSH2 0x1FA0 PUSH1 0x1F DUP10 AND DUP3 PUSH2 0x1EAD JUMP JUMPDEST DUP4 SSTORE POP JUMPDEST PUSH1 0x1 PUSH1 0x2 DUP9 MUL ADD DUP9 SSTORE POP POP POP JUMPDEST POP POP POP POP POP POP JUMP JUMPDEST PUSH32 0x416C726561647920737461727465640000000000000000000000000000000000 PUSH1 0x0 DUP3 ADD MSTORE POP JUMP JUMPDEST PUSH1 0x0 PUSH2 0x1FEF PUSH1 0xF DUP4 PUSH2 0x17B3 JUMP JUMPDEST SWAP2 POP PUSH2 0x1FFA DUP3 PUSH2 0x1FB9 JUMP JUMPDEST PUSH1 0x20 DUP3 ADD SWAP1 POP SWAP2 SWAP1 POP JUMP JUMPDEST PUSH1 0x0 PUSH1 0x20 DUP3 ADD SWAP1 POP DUP2 DUP2 SUB PUSH1 0x0 DUP4 ADD MSTORE PUSH2 0x201E DUP2 PUSH2 0x1FE2 JUMP JUMPDEST SWAP1 POP SWAP2 SWAP1 POP JUMP JUMPDEST PUSH32 0x4E6F2063616E6469646174657300000000000000000000000000000000000000 PUSH1 0x0 DUP3 ADD MSTORE POP JUMP JUMPDEST PUSH1 0x0 PUSH2 0x205B PUSH1 0xD DUP4 PUSH2 0x17B3 JUMP JUMPDEST SWAP2 POP PUSH2 0x2066 DUP3 PUSH2 0x2025 JUMP JUMPDEST PUSH1 0x20 DUP3 ADD SWAP1 POP SWAP2 SWAP1 POP JUMP JUMPDEST PUSH1 0x0 PUSH1 0x20 DUP3 ADD SWAP1 POP DUP2 DUP2 SUB PUSH1 0x0 DUP4 ADD MSTORE PUSH2 0x208A DUP2 PUSH2 0x204E JUMP JUMPDEST SWAP1 POP SWAP2 SWAP1 POP JUMP JUMPDEST PUSH32 0x456C656374696F6E207374696C6C206163746976650000000000000000000000 PUSH1 0x0 DUP3 ADD MSTORE POP JUMP JUMPDEST PUSH1 0x0 PUSH2 0x20C7 PUSH1 0x15 DUP4 PUSH2 0x17B3 JUMP JUMPDEST SWAP2 POP PUSH2 0x20D2 DUP3 PUSH2 0x2091 JUMP JUMPDEST PUSH1 0x20 DUP3 ADD SWAP1 POP SWAP2 SWAP1 POP JUMP JUMPDEST PUSH1 0x0 PUSH1 0x20 DUP3 ADD SWAP1 POP DUP2 DUP2 SUB PUSH1 0x0 DUP4 ADD MSTORE PUSH2 0x20F6 DUP2 PUSH2 0x20BA JUMP JUMPDEST SWAP1 POP SWAP2 SWAP1 POP JUMP JUMPDEST PUSH32 0x496E76616C696420616464726573730000000000000000000000000000000000 PUSH1 0x0 DUP3 ADD MSTORE POP JUMP JUMPDEST PUSH1 0x0 PUSH2 0x2133 PUSH1 0xF DUP4 PUSH2 0x17B3 JUMP JUMPDEST SWAP2 POP PUSH2 0x213E DUP3 PUSH2 0x20FD JUMP JUMPDEST PUSH1 0x20 DUP3 ADD SWAP1 POP SWAP2 SWAP1 POP JUMP JUMPDEST PUSH1 0x0 PUSH1 0x20 DUP3 ADD SWAP1 POP DUP2 DUP2 SUB PUSH1 0x0 DUP4 ADD MSTORE PUSH2 0x2162 DUP2 PUSH2 0x2126 JUMP JUMPDEST SWAP1 POP SWAP2 SWAP1 POP JUMP JUMPDEST PUSH32 0x416C726561647920726567697374657265640000000000000000000000000000 PUSH1 0x0 DUP3 ADD MSTORE POP JUMP JUMPDEST PUSH1 0x0 PUSH2 0x219F PUSH1 0x12 DUP4 PUSH2 0x17B3 JUMP JUMPDEST SWAP2 POP PUSH2 0x21AA DUP3 PUSH2 0x2169 JUMP JUMPDEST PUSH1 0x20 DUP3 ADD SWAP1 POP SWAP2 SWAP1 POP JUMP JUMPDEST PUSH1 0x0 PUSH1 0x20 DUP3 ADD SWAP1 POP DUP2 DUP2 SUB PUSH1 0x0 DUP4 ADD MSTORE PUSH2 0x21CE DUP2 PUSH2 0x2192 JUMP JUMPDEST SWAP1 POP SWAP2 SWAP1 POP JUMP INVALID LOG2 PUSH5 0x6970667358 0x22 SLT KECCAK256 DATALOADN 0xFCF8 0xC2 SWAP7 0xC6 SIGNEXTEND GASLIMIT BASEFEE PUSH2 0xE421 0xC6 SWAP1 EXTDELEGATECALL 0xCF RETURN 0x28 DUP9 SWAP12 LOG4 EOFCREATE 0x32 0xBD INVALID 0xF 0xB4 SELFDESTRUCT 0xCB SWAPN 0x12 RJUMP 0x6473 PUSH16 0x6C634300081E00330000000000000000 "
		},
		"gasEstimates": {
			"creation": {
				"codeDepositCost": "1743000",
				"executionCost": "infinite",
				"totalCost": "infinite"
			},
			"external": {
				"addCandidate(string)": "infinite",
				"admin()": "infinite",
				"authorizeVoter(address)": "infinite",
				"endElection()": "infinite",
				"getCandidate(uint256)": "infinite",
				"getCandidateCount()": "2512",
				"getCandidates()": "infinite",
				"getElectionStatus()": "infinite",
				"getResults()": "infinite",
				"getWinner()": "infinite",
				"hasVoted(address)": "2913",
				"isActive()": "2513",
				"registeredVoters(address)": "2889",
				"startElection()": "infinite",
				"vote(uint256)": "infinite"
			}
		},
		"methodIdentifiers": {
			"addCandidate(string)": "462e91ec",
			"admin()": "f851a440",
			"authorizeVoter(address)": "fd47b368",
			"endElection()": "59f78468",
			"getCandidate(uint256)": "35b8e820",
			"getCandidateCount()": "30a56347",
			"getCandidates()": "06a49fce",
			"getElectionStatus()": "122902a6",
			"getResults()": "4717f97c",
			"getWinner()": "8e7ea5b2",
			"hasVoted(address)": "09eef43e",
			"isActive()": "22f3e2d4",
			"registeredVoters(address)": "a9ff6df1",
			"startElection()": "62d73eb8",
			"vote(uint256)": "0121b93f"
		}
	},
	"abi": [
		{
			"inputs": [],
			"stateMutability": "nonpayable",
			"type": "constructor"
		},
		{
			"anonymous": false,
			"inputs": [
				{
					"indexed": true,
					"internalType": "uint256",
					"name": "candidateId",
					"type": "uint256"
				},
				{
					"indexed": false,
					"internalType": "string",
					"name": "name",
					"type": "string"
				}
			],
			"name": "CandidateAdded",
			"type": "event"
		},
		{
			"anonymous": false,
			"inputs": [
				{
					"indexed": false,
					"internalType": "uint256",
					"name": "timestamp",
					"type": "uint256"
				}
			],
			"name": "ElectionEnded",
			"type": "event"
		},
		{
			"anonymous": false,
			"inputs": [
				{
					"indexed": false,
					"internalType": "uint256",
					"name": "timestamp",
					"type": "uint256"
				}
			],
			"name": "ElectionStarted",
			"type": "event"
		},
		{
			"anonymous": false,
			"inputs": [
				{
					"indexed": true,
					"internalType": "address",
					"name": "voter",
					"type": "address"
				},
				{
					"indexed": true,
					"internalType": "uint256",
					"name": "candidateId",
					"type": "uint256"
				}
			],
			"name": "VoteCast",
			"type": "event"
		},
		{
			"anonymous": false,
			"inputs": [
				{
					"indexed": true,
					"internalType": "address",
					"name": "voter",
					"type": "address"
				}
			],
			"name": "VoterAuthorized",
			"type": "event"
		},
		{
			"inputs": [
				{
					"internalType": "string",
					"name": "name",
					"type": "string"
				}
			],
			"name": "addCandidate",
			"outputs": [],
			"stateMutability": "nonpayable",
			"type": "function"
		},
		{
			"inputs": [],
			"name": "admin",
			"outputs": [
				{
					"internalType": "address",
					"name": "",
					"type": "address"
				}
			],
			"stateMutability": "view",
			"type": "function"
		},
		{
			"inputs": [
				{
					"internalType": "address",
					"name": "voter",
					"type": "address"
				}
			],
			"name": "authorizeVoter",
			"outputs": [],
			"stateMutability": "nonpayable",
			"type": "function"
		},
		{
			"inputs": [],
			"name": "endElection",
			"outputs": [],
			"stateMutability": "nonpayable",
			"type": "function"
		},
		{
			"inputs": [
				{
					"internalType": "uint256",
					"name": "id",
					"type": "uint256"
				}
			],
			"name": "getCandidate",
			"outputs": [
				{
					"components": [
						{
							"internalType": "uint256",
							"name": "id",
							"type": "uint256"
						},
						{
							"internalType": "string",
							"name": "name",
							"type": "string"
						},
						{
							"internalType": "uint256",
							"name": "voteCount",
							"type": "uint256"
						}
					],
					"internalType": "struct Voting.Candidate",
					"name": "",
					"type": "tuple"
				}
			],
			"stateMutability": "view",
			"type": "function"
		},
		{
			"inputs": [],
			"name": "getCandidateCount",
			"outputs": [
				{
					"internalType": "uint256",
					"name": "",
					"type": "uint256"
				}
			],
			"stateMutability": "view",
			"type": "function"
		},
		{
			"inputs": [],
			"name": "getCandidates",
			"outputs": [
				{
					"components": [
						{
							"internalType": "uint256",
							"name": "id",
							"type": "uint256"
						},
						{
							"internalType": "string",
							"name": "name",
							"type": "string"
						},
						{
							"internalType": "uint256",
							"name": "voteCount",
							"type": "uint256"
						}
					],
					"internalType": "struct Voting.Candidate[]",
					"name": "",
					"type": "tuple[]"
				}
			],
			"stateMutability": "view",
			"type": "function"
		},
		{
			"inputs": [],
			"name": "getElectionStatus",
			"outputs": [
				{
					"internalType": "bool",
					"name": "active",
					"type": "bool"
				},
				{
					"internalType": "bool",
					"name": "started",
					"type": "bool"
				}
			],
			"stateMutability": "view",
			"type": "function"
		},
		{
			"inputs": [],
			"name": "getResults",
			"outputs": [
				{
					"components": [
						{
							"internalType": "uint256",
							"name": "id",
							"type": "uint256"
						},
						{
							"internalType": "string",
							"name": "name",
							"type": "string"
						},
						{
							"internalType": "uint256",
							"name": "voteCount",
							"type": "uint256"
						}
					],
					"internalType": "struct Voting.Candidate[]",
					"name": "",
					"type": "tuple[]"
				}
			],
			"stateMutability": "view",
			"type": "function"
		},
		{
			"inputs": [],
			"name": "getWinner",
			"outputs": [
				{
					"internalType": "string",
					"name": "winnerName",
					"type": "string"
				}
			],
			"stateMutability": "view",
			"type": "function"
		},
		{
			"inputs": [
				{
					"internalType": "address",
					"name": "",
					"type": "address"
				}
			],
			"name": "hasVoted",
			"outputs": [
				{
					"internalType": "bool",
					"name": "",
					"type": "bool"
				}
			],
			"stateMutability": "view",
			"type": "function"
		},
		{
			"inputs": [],
			"name": "isActive",
			"outputs": [
				{
					"internalType": "bool",
					"name": "",
					"type": "bool"
				}
			],
			"stateMutability": "view",
			"type": "function"
		},
		{
			"inputs": [
				{
					"internalType": "address",
					"name": "",
					"type": "address"
				}
			],
			"name": "registeredVoters",
			"outputs": [
				{
					"internalType": "bool",
					"name": "",
					"type": "bool"
				}
			],
			"stateMutability": "view",
			"type": "function"
		},
		{
			"inputs": [],
			"name": "startElection",
			"outputs": [],
			"stateMutability": "nonpayable",
			"type": "function"
		},
		{
			"inputs": [
				{
					"internalType": "uint256",
					"name": "candidateId",
					"type": "uint256"
				}
			],
			"name": "vote",
			"outputs": [],
			"stateMutability": "nonpayable",
			"type": "function"
		}
	]
}