{
  "_format": "hh-sol-artifact-1",
  "contractName": "Voting",
  "sourceName": "contracts/Voting.sol",
  "abi": [
    {
      "inputs": [],
      "stateMutability": "nonpayable",
      "type": "constructor"
    },
    {
      "anonymous": false,
      "inputs": [
        {
          "indexed": true,
          "internalType": "uint256",
          "name": "candidateId",
          "type": "uint256"
        },
        {
          "indexed": false,
          "internalType": "string",
          "name": "name",
          "type": "string"
        }
      ],
      "name": "CandidateAdded",
      "type": "event"
    },
    {
      "anonymous": false,
      "inputs": [
        {
          "indexed": false,
          "internalType": "uint256",
          "name": "timestamp",
          "type": "uint256"
        }
      ],
      "name": "ElectionEnded",
      "type": "event"
    },
    {
      "anonymous": false,
      "inputs": [
        {
          "indexed": false,
          "internalType": "uint256",
          "name": "timestamp",
          "type": "uint256"
        }
      ],
      "name": "ElectionStarted",
      "type": "event"
    },
    {
      "anonymous": false,
      "inputs": [
        {
          "indexed": true,
          "internalType": "address",
          "name": "voter",
          "type": "address"
        },
        {
          "indexed": true,
          "internalType": "uint256",
          "name": "candidateId",
          "type": "uint256"
        }
      ],
      "name": "VoteCast",
      "type": "event"
    },
    {
      "anonymous": false,
      "inputs": [
        {
          "indexed": true,
          "internalType": "address",
          "name": "voter",
          "type": "address"
        }
      ],
      "name": "VoterAuthorized",
      "type": "event"
    },
    {
      "inputs": [
        {
          "internalType": "string",
          "name": "name",
          "type": "string"
        }
      ],
      "name": "addCandidate",
      "outputs": [],
      "stateMutability": "nonpayable",
      "type": "function"
    },
    {
      "inputs": [],
      "name": "admin",
      "outputs": [
        {
          "internalType": "address",
          "name": "",
          "type": "address"
        }
      ],
      "stateMutability": "view",
      "type": "function"
    },
    {
      "inputs": [
        {
          "internalType": "address",
          "name": "voter",
          "type": "address"
        }
      ],
      "name": "authorizeVoter",
      "outputs": [],
      "stateMutability": "nonpayable",
      "type": "function"
    },
    {
      "inputs": [],
      "name": "endElection",
      "outputs": [],
      "stateMutability": "nonpayable",
      "type": "function"
    },
    {
      "inputs": [
        {
          "internalType": "uint256",
          "name": "id",
          "type": "uint256"
        }
      ],
      "name": "getCandidate",
      "outputs": [
        {
          "components": [
            {
              "internalType": "uint256",
              "name": "id",
              "type": "uint256"
            },
            {
              "internalType": "string",
              "name": "name",
              "type": "string"
            },
            {
              "internalType": "uint256",
              "name": "voteCount",
              "type": "uint256"
            }
          ],
          "internalType": "struct Voting.Candidate",
          "name": "",
          "type": "tuple"
        }
      ],
      "stateMutability": "view",
      "type": "function"
    },
    {
      "inputs": [],
      "name": "getCandidateCount",
      "outputs": [
        {
          "internalType": "uint256",
          "name": "",
          "type": "uint256"
        }
      ],
      "stateMutability": "view",
      "type": "function"
    },
    {
      "inputs": [],
      "name": "getCandidates",
      "outputs": [
        {
          "components": [
            {
              "internalType": "uint256",
              "name": "id",
              "type": "uint256"
            },
            {
              "internalType": "string",
              "name": "name",
              "type": "string"
            },
            {
              "internalType": "uint256",
              "name": "voteCount",
              "type": "uint256"
            }
          ],
          "internalType": "struct Voting.Candidate[]",
          "name": "",
          "type": "tuple[]"
        }
      ],
      "stateMutability": "view",
      "type": "function"
    },
    {
      "inputs": [],
      "name": "getElectionStatus",
      "outputs": [
        {
          "internalType": "bool",
          "name": "active",
          "type": "bool"
        },
        {
          "internalType": "bool",
          "name": "started",
          "type": "bool"
        }
      ],
      "stateMutability": "view",
      "type": "function"
    },
    {
      "inputs": [],
      "name": "getResults",
      "outputs": [
        {
          "components": [
            {
              "internalType": "uint256",
              "name": "id",
              "type": "uint256"
            },
            {
              "internalType": "string",
              "name": "name",
              "type": "string"
            },
            {
              "internalType": "uint256",
              "name": "voteCount",
              "type": "uint256"
            }
          ],
          "internalType": "struct Voting.Candidate[]",
          "name": "",
          "type": "tuple[]"
        }
      ],
      "stateMutability": "view",
      "type": "function"
    },
    {
      "inputs": [],
      "name": "getWinner",
      "outputs": [
        {
          "internalType": "string",
          "name": "winnerName",
          "type": "string"
        }
      ],
      "stateMutability": "view",
      "type": "function"
    },
    {
      "inputs": [
        {
          "internalType": "address",
          "name": "",
          "type": "address"
        }
      ],
      "name": "hasVoted",
      "outputs": [
        {
          "internalType": "bool",
          "name": "",
          "type": "bool"
        }
      ],
      "stateMutability": "view",
      "type": "function"
    },
    {
      "inputs": [],
      "name": "isActive",
      "outputs": [
        {
          "internalType": "bool",
          "name": "",
          "type": "bool"
        }
      ],
      "stateMutability": "view",
      "type": "function"
    },
    {
      "inputs": [
        {
          "internalType": "address",
          "name": "",
          "type": "address"
        }
      ],
      "name": "registeredVoters",
      "outputs": [
        {
          "internalType": "bool",
          "name": "",
          "type": "bool"
        }
      ],
      "stateMutability": "view",
      "type": "function"
    },
    {
      "inputs": [],
      "name": "startElection",
      "outputs": [],
      "stateMutability": "nonpayable",
      "type": "function"
    },
    {
      "inputs": [
        {
          "internalType": "uint256",
          "name": "candidateId",
          "type": "uint256"
        }
      ],
      "name": "vote",
      "outputs": [],
      "stateMutability": "nonpayable",
      "type": "function"
    }
  ],
  "bytecode": "0x60a060405234801561001057600080fd5b50336080526000805461ffff191690556080516112ab6100576000396000818161022c015281816106f6015281816109b401528181610a840152610d4f01526112ab6000f3fe608060405234801561001057600080fd5b50600436106100f55760003560e01c8063462e91ec116100975780638e7ea5b2116100665780638e7ea5b2146101ef578063a9ff6df114610204578063f851a44014610227578063fd47b3681461026657600080fd5b8063462e91ec146101c45780634717f97c146101d757806359f78468146101df57806362d73eb8146101e757600080fd5b8063122902a6116100d3578063122902a61461016057806322f3e2d41461018657806330a563471461019357806335b8e820146101a457600080fd5b80630121b93f146100fa57806306a49fce1461010f57806309eef43e1461012d575b600080fd5b61010d610108366004610e7e565b610279565b005b610117610494565b6040516101249190610f10565b60405180910390f35b61015061013b366004610f72565b60036020526000908152604090205460ff1681565b6040519015158152602001610124565b60005460ff80821691610100900416604080519215158352901515602083015201610124565b6000546101509060ff1681565b600154604051908152602001610124565b6101b76101b2366004610e7e565b610599565b6040516101249190610fa2565b61010d6101d2366004610fcb565b6106eb565b6101176108ad565b61010d6109a9565b61010d610a79565b6101f7610b89565b604051610124919061107c565b610150610212366004610f72565b60026020526000908152604090205460ff1681565b61024e7f000000000000000000000000000000000000000000000000000000000000000081565b6040516001600160a01b039091168152602001610124565b61010d610274366004610f72565b610d44565b60005460ff166102c65760405162461bcd60e51b8152602060048201526013602482015272456c656374696f6e206e6f742061637469766560681b60448201526064015b60405180910390fd5b600054610100900460ff166103145760405162461bcd60e51b8152602060048201526014602482015273115b1958dd1a5bdb881b9bdd081cdd185c9d195960621b60448201526064016102bd565b3360009081526002602052604090205460ff166103645760405162461bcd60e51b815260206004820152600e60248201526d139bdd081c9959da5cdd195c995960921b60448201526064016102bd565b3360009081526003602052604090205460ff16156103b45760405162461bcd60e51b815260206004820152600d60248201526c105b1c9958591e481d9bdd1959609a1b60448201526064016102bd565b600181101580156103c757506001548111155b6104075760405162461bcd60e51b8152602060048201526011602482015270496e76616c69642063616e64696461746560781b60448201526064016102bd565b336000908152600360205260409020805460ff191660019081179091558061042f81846110a5565b8154811061043f5761043f6110be565b9060005260206000209060030201600201600082825461045f91906110d4565b9091555050604051819033907fa36cc2bebb74db33e9f88110a07ef56e1b31b24b4c4f51b54b1664266e29f45b90600090a350565b60606001805480602002602001604051908101604052809291908181526020016000905b828210156105905783829060005260206000209060030201604051806060016040529081600082015481526020016001820180546104f5906110e7565b80601f0160208091040260200160405190810160405280929190818152602001828054610521906110e7565b801561056e5780601f106105435761010080835404028352916020019161056e565b820191906000526020600020905b81548152906001019060200180831161055157829003601f168201915b50505050508152602001600282015481525050815260200190600101906104b8565b50505050905090565b6105bd60405180606001604052806000815260200160608152602001600081525090565b600182101580156105d057506001548211155b6106095760405162461bcd60e51b815260206004820152600a602482015269125b9d985b1a5908125160b21b60448201526064016102bd565b600161061581846110a5565b81548110610625576106256110be565b906000526020600020906003020160405180606001604052908160008201548152602001600182018054610658906110e7565b80601f0160208091040260200160405190810160405280929190818152602001828054610684906110e7565b80156106d15780601f106106a6576101008083540402835291602001916106d1565b820191906000526020600020905b8154815290600101906020018083116106b457829003601f168201915b505050505081526020016002820154815250509050919050565b336001600160a01b037f000000000000000000000000000000000000000000000000000000000000000016146107335760405162461bcd60e51b81526004016102bd90611121565b600054610100900460ff161561078b5760405162461bcd60e51b815260206004820152601860248201527f456c656374696f6e20616c72656164792073746172746564000000000000000060448201526064016102bd565b60008151116107c95760405162461bcd60e51b815260206004820152600a602482015269456d707479206e616d6560b01b60448201526064016102bd565b600180546000916107da91906110d4565b604080516060810182528281526020810185815260009282018390526001805480820182559352815160039093027fb10e2d527612073b26eecdfd717e6a320cf44b4afac2b0732d9fcbe2b7fa0cf68101938455905193945090927fb10e2d527612073b26eecdfd717e6a320cf44b4afac2b0732d9fcbe2b7fa0cf790910190610864908261119c565b50604082015181600201555050807fe83b2a43e7e82d975c8a0a6d2f045153c869e111136a34d1889ab7b598e396a3836040516108a1919061107c565b60405180910390a25050565b60606001805480602002602001604051908101604052809291908181526020016000905b8282101561059057838290600052602060002090600302016040518060600160405290816000820154815260200160018201805461090e906110e7565b80601f016020809104026020016040519081016040528092919081815260200182805461093a906110e7565b80156109875780601f1061095c57610100808354040283529160200191610987565b820191906000526020600020905b81548152906001019060200180831161096a57829003601f168201915b50505050508152602001600282015481525050815260200190600101906108d1565b336001600160a01b037f000000000000000000000000000000000000000000000000000000000000000016146109f15760405162461bcd60e51b81526004016102bd90611121565b60005460ff16610a395760405162461bcd60e51b8152602060048201526013602482015272456c656374696f6e206e6f742061637469766560681b60448201526064016102bd565b6000805460ff191690556040514281527f562cd572b2ba3b666cd989fc4ca98419ec81e75f04528df9d9d76fdb7807ee71906020015b60405180910390a1565b336001600160a01b037f00000000000000000000000000000000000000000000000000000000000000001614610ac15760405162461bcd60e51b81526004016102bd90611121565b600054610100900460ff1615610b0b5760405162461bcd60e51b815260206004820152600f60248201526e105b1c9958591e481cdd185c9d1959608a1b60448201526064016102bd565b600154610b4a5760405162461bcd60e51b815260206004820152600d60248201526c4e6f2063616e6469646174657360981b60448201526064016102bd565b6000805461ffff19166101011790556040514281527f159eee87222a0489c529f2153c26ad65d718f2cc33ebaa8d399d1dd5b39facaa90602001610a6f565b60005460609060ff1615610bd75760405162461bcd60e51b8152602060048201526015602482015274456c656374696f6e207374696c6c2061637469766560581b60448201526064016102bd565b600154610c165760405162461bcd60e51b815260206004820152600d60248201526c4e6f2063616e6469646174657360981b60448201526064016102bd565b60008060005b600154811015610c8f578260018281548110610c3a57610c3a6110be565b9060005260206000209060030201600201541115610c7d5760018181548110610c6557610c656110be565b90600052602060002090600302016002015492508091505b80610c878161125c565b915050610c1c565b5060018181548110610ca357610ca36110be565b90600052602060002090600302016001018054610cbf906110e7565b80601f0160208091040260200160405190810160405280929190818152602001828054610ceb906110e7565b8015610d385780601f10610d0d57610100808354040283529160200191610d38565b820191906000526020600020905b815481529060010190602001808311610d1b57829003601f168201915b50505050509250505090565b336001600160a01b037f00000000000000000000000000000000000000000000000000000000000000001614610d8c5760405162461bcd60e51b81526004016102bd90611121565b6001600160a01b038116610dd45760405162461bcd60e51b815260206004820152600f60248201526e496e76616c6964206164647265737360881b60448201526064016102bd565b6001600160a01b03811660009081526002602052604090205460ff1615610e325760405162461bcd60e51b8152602060048201526012602482015271105b1c9958591e481c9959da5cdd195c995960721b60448201526064016102bd565b6001600160a01b038116600081815260026020526040808220805460ff19166001179055517f0ca65a9f1f88bd7257ac852d1062853358f81cdc56f9634dcbeed6090f8dfb439190a250565b600060208284031215610e9057600080fd5b5035919050565b6000815180845260005b81811015610ebd57602081850181015186830182015201610ea1565b506000602082860101526020601f19601f83011685010191505092915050565b805182526000602082015160606020850152610efc6060850182610e97565b604093840151949093019390935250919050565b6000602080830181845280855180835260408601915060408160051b870101925083870160005b82811015610f6557603f19888603018452610f53858351610edd565b94509285019290850190600101610f37565b5092979650505050505050565b600060208284031215610f8457600080fd5b81356001600160a01b0381168114610f9b57600080fd5b9392505050565b602081526000610f9b6020830184610edd565b634e487b7160e01b600052604160045260246000fd5b600060208284031215610fdd57600080fd5b813567ffffffffffffffff80821115610ff557600080fd5b818401915084601f83011261100957600080fd5b81358181111561101b5761101b610fb5565b604051601f8201601f19908116603f0116810190838211818310171561104357611043610fb5565b8160405282815287602084870101111561105c57600080fd5b826020860160208301376000928101602001929092525095945050505050565b602081526000610f9b6020830184610e97565b634e487b7160e01b600052601160045260246000fd5b818103818111156110b8576110b861108f565b92915050565b634e487b7160e01b600052603260045260246000fd5b808201808211156110b8576110b861108f565b600181811c908216806110fb57607f821691505b60208210810361111b57634e487b7160e01b600052602260045260246000fd5b50919050565b60208082526012908201527113db9b1e4818591b5a5b88185b1b1bddd95960721b604082015260600190565b601f82111561119757600081815260208120601f850160051c810160208610156111745750805b601f850160051c820191505b8181101561119357828155600101611180565b5050505b505050565b815167ffffffffffffffff8111156111b6576111b6610fb5565b6111ca816111c484546110e7565b8461114d565b602080601f8311600181146111ff57600084156111e75750858301515b600019600386901b1c1916600185901b178555611193565b600085815260208120601f198616915b8281101561122e5788860151825594840194600190910190840161120f565b508582101561124c5787850151600019600388901b60f8161c191681555b5050505050600190811b01905550565b60006001820161126e5761126e61108f565b506001019056fea26469706673582212203a285111e121b1e515c9ebcac606e64981634129aeee4e8daa616855d12a787664736f6c63430008140033",
  "linkReferences": {},
  "deployedLinkReferences": {}
}